{
  "contractName": "EnergyData",
  "abi": [
    {
      "constant": true,
      "inputs": [],
      "name": "counter",
      "outputs": [
        {
          "internalType": "uint256",
          "name": "",
          "type": "uint256"
        }
      ],
      "payable": false,
      "stateMutability": "view",
      "type": "function"
    },
    {
      "constant": true,
      "inputs": [
        {
          "internalType": "uint256",
          "name": "",
          "type": "uint256"
        }
      ],
      "name": "energyData",
      "outputs": [
        {
          "internalType": "string",
          "name": "timestamp",
          "type": "string"
        },
        {
          "internalType": "string",
          "name": "energy",
          "type": "string"
        }
      ],
      "payable": false,
      "stateMutability": "view",
      "type": "function"
    },
    {
      "constant": false,
      "inputs": [
        {
          "internalType": "string",
          "name": "_timestamp",
          "type": "string"
        },
        {
          "internalType": "string",
          "name": "_energy",
          "type": "string"
        }
      ],
      "name": "postEnergyData",
      "outputs": [],
      "payable": false,
      "stateMutability": "nonpayable",
      "type": "function"
    },
    {
      "constant": true,
      "inputs": [
        {
          "internalType": "uint256",
          "name": "index",
          "type": "uint256"
        }
      ],
      "name": "getEnergyData",
      "outputs": [
        {
          "internalType": "string",
          "name": "",
          "type": "string"
        },
        {
          "internalType": "string",
          "name": "",
          "type": "string"
        }
      ],
      "payable": false,
      "stateMutability": "view",
      "type": "function"
    },
    {
      "constant": true,
      "inputs": [],
      "name": "getEnergyCounter",
      "outputs": [
        {
          "internalType": "string",
          "name": "",
          "type": "string"
        }
      ],
      "payable": false,
      "stateMutability": "view",
      "type": "function"
    }
  ],
  "bytecode": "0x6080604052600060015534801561001557600080fd5b506109bd806100256000396000f3fe608060405234801561001057600080fd5b50600436106100575760003560e01c8063297128191461005c57806361bc221a146100df57806361f2c1e8146100fd578063902557cb14610210578063beb8c97214610362575b600080fd5b610064610475565b6040518080602001828103825283818151815260200191508051906020019080838360005b838110156100a4578082015181840152602081019050610089565b50505050905090810190601f1680156100d15780820380516001836020036101000a031916815260200191505b509250505060405180910390f35b6100e7610487565b6040518082815260200191505060405180910390f35b6101296004803603602081101561011357600080fd5b810190808035906020019092919050505061048d565b604051808060200180602001838103835285818151815260200191508051906020019080838360005b8381101561016d578082015181840152602081019050610152565b50505050905090810190601f16801561019a5780820380516001836020036101000a031916815260200191505b50838103825284818151815260200191508051906020019080838360005b838110156101d35780820151818401526020810190506101b8565b50505050905090810190601f1680156102005780820380516001836020036101000a031916815260200191505b5094505050505060405180910390f35b6103606004803603604081101561022657600080fd5b810190808035906020019064010000000081111561024357600080fd5b82018360208201111561025557600080fd5b8035906020019184600183028401116401000000008311171561027757600080fd5b91908080601f016020809104026020016040519081016040528093929190818152602001838380828437600081840152601f19601f820116905080830192505050505050509192919290803590602001906401000000008111156102da57600080fd5b8201836020820111156102ec57600080fd5b8035906020019184600183028401116401000000008311171561030e57600080fd5b91908080601f016020809104026020016040519081016040528093929190818152602001838380828437600081840152601f19601f8201169050808301925050505050505091929192905050506105e1565b005b61038e6004803603602081101561037857600080fd5b8101908080359060200190929190505050610642565b604051808060200180602001838103835285818151815260200191508051906020019080838360005b838110156103d25780820151818401526020810190506103b7565b50505050905090810190601f1680156103ff5780820380516001836020036101000a031916815260200191505b50838103825284818151815260200191508051906020019080838360005b8381101561043857808201518184015260208101905061041d565b50505050905090810190601f1680156104655780820380516001836020036101000a031916815260200191505b5094505050505060405180910390f35b60606104826001546107b6565b905090565b60015481565b6000602052806000526040600020600091509050806000018054600181600116156101000203166002900480601f0160208091040260200160405190810160405280929190818152602001828054600181600116156101000203166002900480156105395780601f1061050e57610100808354040283529160200191610539565b820191906000526020600020905b81548152906001019060200180831161051c57829003601f168201915b505050505090806001018054600181600116156101000203166002900480601f0160208091040260200160405190810160405280929190818152602001828054600181600116156101000203166002900480156105d75780601f106105ac576101008083540402835291602001916105d7565b820191906000526020600020905b8154815290600101906020018083116105ba57829003601f168201915b5050505050905082565b600160008154809291906001019190505550600080600060015481526020019081526020016000209050828160000190805190602001906106239291906108e3565b508181600101908051906020019061063c9291906108e3565b50505050565b60608060606000808581526020019081526020016000206000018054600181600116156101000203166002900480601f0160208091040260200160405190810160405280929190818152602001828054600181600116156101000203166002900480156106f05780601f106106c5576101008083540402835291602001916106f0565b820191906000526020600020905b8154815290600101906020018083116106d357829003601f168201915b5050505050905060606000808681526020019081526020016000206001018054600181600116156101000203166002900480601f0160208091040260200160405190810160405280929190818152602001828054600181600116156101000203166002900480156107a25780601f10610777576101008083540402835291602001916107a2565b820191906000526020600020905b81548152906001019060200180831161078557829003601f168201915b505050505090508181935093505050915091565b606060008214156107fe576040518060400160405280600181526020017f300000000000000000000000000000000000000000000000000000000000000081525090506108de565b600082905060005b60008214610828578080600101915050600a828161082057fe5b049150610806565b6060816040519080825280601f01601f19166020018201604052801561085d5781602001600182028038833980820191505090505b50905060006001830390505b600086146108d657600a868161087b57fe5b0660300160f81b8282806001900393508151811061089557fe5b60200101907effffffffffffffffffffffffffffffffffffffffffffffffffffffffffffff1916908160001a905350600a86816108ce57fe5b049550610869565b819450505050505b919050565b828054600181600116156101000203166002900490600052602060002090601f016020900481019282601f1061092457805160ff1916838001178555610952565b82800160010185558215610952579182015b82811115610951578251825591602001919060010190610936565b5b50905061095f9190610963565b5090565b61098591905b80821115610981576000816000905550600101610969565b5090565b9056fea265627a7a72315820007ebb0aae2ccac52e186eeeaa7a90f152e40cd58200a56c75ad3b13032f316164736f6c63430005100032",
  "source": "// SPDX-License-Identifier: GPL-3.0\n\npragma solidity ^0.5.16;\n\ncontract EnergyData {\n    struct energyDatum{\n        string timestamp;\n        string energy;\n    }\n\n    mapping(uint256 => energyDatum) public energyData;\n    uint256 public counter = 0;\n\n    function postEnergyData(string memory _timestamp, string memory _energy) public {\n        counter++;\n        energyDatum storage kati = energyData[counter];\n        kati.timestamp = _timestamp;\n        kati.energy = _energy;\n    }\n\n    function getEnergyData(uint index) public view returns (string memory, string memory) {\n        string memory datumTimestamp = energyData[index].timestamp;\n        string memory datumEnergy = energyData[index].energy;\n\n        return (datumTimestamp, datumEnergy);\n    }\n\n    function getEnergyCounter() public view returns (string memory) {\n        return uint2str(counter);\n    }\n\n    function uint2str(uint _i) internal pure returns (string memory _uintAsString) {\n        if (_i == 0) {\n            return \"0\";\n        }\n        uint j = _i;\n        uint len;\n        while (j != 0) {\n            len++;\n            j /= 10;\n        }\n        bytes memory bstr = new bytes(len);\n        uint k = len - 1;\n        while (_i != 0) {\n            bstr[k--] = byte(uint8(48 + _i % 10));\n            _i /= 10;\n        }\n        return string(bstr);\n    }\n}",
  "sourcePath": "/home/sergios/BlockchainDAO/contracts/EnergyData.sol",
  "compiler": {
    "name": "solc",
    "version": "0.5.16+commit.9c3226ce.Emscripten.clang"
  },
  "schemaVersion": "3.4.1",
  "updatedAt": "2021-11-02T18:39:34.696Z",
  "networkType": "ethereum",
  "devdoc": {
    "methods": {}
  },
  "userdoc": {
    "methods": {}
  }
}