{
  "contractName": "EnergyData2",
  "abi": [
    {
      "inputs": [],
      "payable": false,
      "stateMutability": "nonpayable",
      "type": "constructor"
    },
    {
      "constant": true,
      "inputs": [],
      "name": "counter",
      "outputs": [
        {
          "internalType": "uint256",
          "name": "",
          "type": "uint256"
        }
      ],
      "payable": false,
      "stateMutability": "view",
      "type": "function"
    },
    {
      "constant": true,
      "inputs": [
        {
          "internalType": "uint256",
          "name": "",
          "type": "uint256"
        }
      ],
      "name": "energyData",
      "outputs": [
        {
          "internalType": "string",
          "name": "timestamp",
          "type": "string"
        },
        {
          "internalType": "string",
          "name": "declaration",
          "type": "string"
        },
        {
          "internalType": "string",
          "name": "production",
          "type": "string"
        }
      ],
      "payable": false,
      "stateMutability": "view",
      "type": "function"
    },
    {
      "constant": true,
      "inputs": [],
      "name": "getOwner",
      "outputs": [
        {
          "internalType": "address",
          "name": "",
          "type": "address"
        }
      ],
      "payable": false,
      "stateMutability": "view",
      "type": "function"
    },
    {
      "constant": false,
      "inputs": [
        {
          "internalType": "string",
          "name": "_timestamp",
          "type": "string"
        },
        {
          "internalType": "string",
          "name": "_declaration",
          "type": "string"
        },
        {
          "internalType": "string",
          "name": "_production",
          "type": "string"
        }
      ],
      "name": "postEnergyData",
      "outputs": [],
      "payable": false,
      "stateMutability": "nonpayable",
      "type": "function"
    },
    {
      "constant": true,
      "inputs": [
        {
          "internalType": "uint256",
          "name": "index",
          "type": "uint256"
        }
      ],
      "name": "getEnergyData",
      "outputs": [
        {
          "internalType": "string",
          "name": "",
          "type": "string"
        },
        {
          "internalType": "string",
          "name": "",
          "type": "string"
        },
        {
          "internalType": "string",
          "name": "",
          "type": "string"
        }
      ],
      "payable": false,
      "stateMutability": "view",
      "type": "function"
    },
    {
      "constant": true,
      "inputs": [],
      "name": "getEnergyCounter",
      "outputs": [
        {
          "internalType": "string",
          "name": "",
          "type": "string"
        }
      ],
      "payable": false,
      "stateMutability": "view",
      "type": "function"
    }
  ],
  "bytecode": "0x608060405273a7e2d1f80b92b75b3fd187490b2b01550043d0b36000806101000a81548173ffffffffffffffffffffffffffffffffffffffff021916908373ffffffffffffffffffffffffffffffffffffffff16021790555073a02a9a8d092a47dc4e7abf569a9b392d0ce07e43600160006101000a81548173ffffffffffffffffffffffffffffffffffffffff021916908373ffffffffffffffffffffffffffffffffffffffff16021790555073448f178c88c0fc73ea74714b1e0494781548ff4c600260006101000a81548173ffffffffffffffffffffffffffffffffffffffff021916908373ffffffffffffffffffffffffffffffffffffffff160217905550737188d086e0415b0b394a67325fc5c4534262e76a600360006101000a81548173ffffffffffffffffffffffffffffffffffffffff021916908373ffffffffffffffffffffffffffffffffffffffff160217905550600060055534801561016857600080fd5b5033600660006101000a81548173ffffffffffffffffffffffffffffffffffffffff021916908373ffffffffffffffffffffffffffffffffffffffff160217905550610eec806101b96000396000f3fe608060405234801561001057600080fd5b50600436106100625760003560e01c80632971281914610067578063359a3889146100ea57806361bc221a146102d357806361f2c1e8146102f1578063893d20e814610470578063beb8c972146104ba575b600080fd5b61006f610639565b6040518080602001828103825283818151815260200191508051906020019080838360005b838110156100af578082015181840152602081019050610094565b50505050905090810190601f1680156100dc5780820380516001836020036101000a031916815260200191505b509250505060405180910390f35b6102d16004803603606081101561010057600080fd5b810190808035906020019064010000000081111561011d57600080fd5b82018360208201111561012f57600080fd5b8035906020019184600183028401116401000000008311171561015157600080fd5b91908080601f016020809104026020016040519081016040528093929190818152602001838380828437600081840152601f19601f820116905080830192505050505050509192919290803590602001906401000000008111156101b457600080fd5b8201836020820111156101c657600080fd5b803590602001918460018302840111640100000000831117156101e857600080fd5b91908080601f016020809104026020016040519081016040528093929190818152602001838380828437600081840152601f19601f8201169050808301925050505050505091929192908035906020019064010000000081111561024b57600080fd5b82018360208201111561025d57600080fd5b8035906020019184600183028401116401000000008311171561027f57600080fd5b91908080601f016020809104026020016040519081016040528093929190818152602001838380828437600081840152601f19601f82011690508083019250505050505050919291929050505061064b565b005b6102db610874565b6040518082815260200191505060405180910390f35b61031d6004803603602081101561030757600080fd5b810190808035906020019092919050505061087a565b60405180806020018060200180602001848103845287818151815260200191508051906020019080838360005b8381101561036557808201518184015260208101905061034a565b50505050905090810190601f1680156103925780820380516001836020036101000a031916815260200191505b50848103835286818151815260200191508051906020019080838360005b838110156103cb5780820151818401526020810190506103b0565b50505050905090810190601f1680156103f85780820380516001836020036101000a031916815260200191505b50848103825285818151815260200191508051906020019080838360005b83811015610431578082015181840152602081019050610416565b50505050905090810190601f16801561045e5780820380516001836020036101000a031916815260200191505b50965050505050505060405180910390f35b610478610a6c565b604051808273ffffffffffffffffffffffffffffffffffffffff1673ffffffffffffffffffffffffffffffffffffffff16815260200191505060405180910390f35b6104e6600480360360208110156104d057600080fd5b8101908080359060200190929190505050610a74565b60405180806020018060200180602001848103845287818151815260200191508051906020019080838360005b8381101561052e578082015181840152602081019050610513565b50505050905090810190601f16801561055b5780820380516001836020036101000a031916815260200191505b50848103835286818151815260200191508051906020019080838360005b83811015610594578082015181840152602081019050610579565b50505050905090810190601f1680156105c15780820380516001836020036101000a031916815260200191505b50848103825285818151815260200191508051906020019080838360005b838110156105fa5780820151818401526020810190506105df565b50505050905090810190601f1680156106275780820380516001836020036101000a031916815260200191505b50965050505050505060405180910390f35b6060610646600554610ca4565b905090565b6000809054906101000a900473ffffffffffffffffffffffffffffffffffffffff1673ffffffffffffffffffffffffffffffffffffffff163373ffffffffffffffffffffffffffffffffffffffff1614806106f35750600160009054906101000a900473ffffffffffffffffffffffffffffffffffffffff1673ffffffffffffffffffffffffffffffffffffffff163373ffffffffffffffffffffffffffffffffffffffff16145b8061074b5750600260009054906101000a900473ffffffffffffffffffffffffffffffffffffffff1673ffffffffffffffffffffffffffffffffffffffff163373ffffffffffffffffffffffffffffffffffffffff16145b806107a35750600360009054906101000a900473ffffffffffffffffffffffffffffffffffffffff1673ffffffffffffffffffffffffffffffffffffffff163373ffffffffffffffffffffffffffffffffffffffff16145b6107f8576040517f08c379a0000000000000000000000000000000000000000000000000000000008152600401808060200182810382526041815260200180610e776041913960600191505060405180910390fd5b600560008154809291906001019190505550600060046000600554815260200190815260200160002090508381600001908051906020019061083b929190610dd1565b5082816001019080519060200190610854929190610dd1565b508181600201908051906020019061086d929190610dd1565b5050505050565b60055481565b6004602052806000526040600020600091509050806000018054600181600116156101000203166002900480601f0160208091040260200160405190810160405280929190818152602001828054600181600116156101000203166002900480156109265780601f106108fb57610100808354040283529160200191610926565b820191906000526020600020905b81548152906001019060200180831161090957829003601f168201915b505050505090806001018054600181600116156101000203166002900480601f0160208091040260200160405190810160405280929190818152602001828054600181600116156101000203166002900480156109c45780601f10610999576101008083540402835291602001916109c4565b820191906000526020600020905b8154815290600101906020018083116109a757829003601f168201915b505050505090806002018054600181600116156101000203166002900480601f016020809104026020016040519081016040528092919081815260200182805460018160011615610100020316600290048015610a625780601f10610a3757610100808354040283529160200191610a62565b820191906000526020600020905b815481529060010190602001808311610a4557829003601f168201915b5050505050905083565b600033905090565b606080606080600460008681526020019081526020016000206000018054600181600116156101000203166002900480601f016020809104026020016040519081016040528092919081815260200182805460018160011615610100020316600290048015610b245780601f10610af957610100808354040283529160200191610b24565b820191906000526020600020905b815481529060010190602001808311610b0757829003601f168201915b505050505090506060600460008781526020019081526020016000206001018054600181600116156101000203166002900480601f016020809104026020016040519081016040528092919081815260200182805460018160011615610100020316600290048015610bd75780601f10610bac57610100808354040283529160200191610bd7565b820191906000526020600020905b815481529060010190602001808311610bba57829003601f168201915b505050505090506060600460008881526020019081526020016000206002018054600181600116156101000203166002900480601f016020809104026020016040519081016040528092919081815260200182805460018160011615610100020316600290048015610c8a5780601f10610c5f57610100808354040283529160200191610c8a565b820191906000526020600020905b815481529060010190602001808311610c6d57829003601f168201915b505050505090508282829550955095505050509193909250565b60606000821415610cec576040518060400160405280600181526020017f30000000000000000000000000000000000000000000000000000000000000008152509050610dcc565b600082905060005b60008214610d16578080600101915050600a8281610d0e57fe5b049150610cf4565b6060816040519080825280601f01601f191660200182016040528015610d4b5781602001600182028038833980820191505090505b50905060006001830390505b60008614610dc457600a8681610d6957fe5b0660300160f81b82828060019003935081518110610d8357fe5b60200101907effffffffffffffffffffffffffffffffffffffffffffffffffffffffffffff1916908160001a905350600a8681610dbc57fe5b049550610d57565b819450505050505b919050565b828054600181600116156101000203166002900490600052602060002090601f016020900481019282601f10610e1257805160ff1916838001178555610e40565b82800160010185558215610e40579182015b82811115610e3f578251825591602001919060010190610e24565b5b509050610e4d9190610e51565b5090565b610e7391905b80821115610e6f576000816000905550600101610e57565b5090565b9056fe546869732066756e6374696f6e206973207265737472696374656420746f2074686520616464726573736573206f6620746865206f7267616e697a6174696f6e73a265627a7a72315820b2d90d091bcac65782c072e469ec34e3fabbf594c937c8c8f79a1f0558947d2b64736f6c63430005100032",
  "source": "// SPDX-License-Identifier: GPL-3.0\n\npragma solidity ^0.5.16;\n\ncontract EnergyData2 {\n    struct energyDatum{\n        string timestamp;\n        string declaration;\n        string production;\n    }\n\n    address org1 = 0xa7e2d1F80B92b75B3fd187490b2b01550043D0b3;\n    address org2 = 0xa02A9A8D092a47dc4E7ABf569a9b392D0Ce07e43;\n    address org3 = 0x448F178C88C0fC73eA74714b1e0494781548ff4C;\n    address org4 = 0x7188D086E0415B0b394a67325Fc5c4534262e76a;\n\n    modifier isOrg {\n        require(msg.sender == org1 || msg.sender == org2 || msg.sender == org3 || msg.sender == org4, \"This function is restricted to the addresses of the organizations\");\n        _;\n    }\n\n    mapping(uint => energyDatum) public energyData;\n    uint public counter = 0;\n    address private owner;\n\n    constructor() public{\n        owner = msg.sender;\n    }\n\n    function getOwner() public view returns (address) {\n        return msg.sender;\n    }\n\n    function postEnergyData(string memory _timestamp, string memory _declaration, string memory _production) public isOrg {\n        counter++;\n        energyDatum storage kati = energyData[counter];\n        kati.timestamp = _timestamp;\n        kati.declaration = _declaration;\n        kati.production = _production;\n    }\n\n    function getEnergyData(uint index) public view returns (string memory, string memory, string memory) {\n        string memory datumTimestamp = energyData[index].timestamp;\n        string memory datumDeclaration = energyData[index].declaration;\n        string memory datumProduction = energyData[index].production;\n        return (datumTimestamp, datumDeclaration, datumProduction);\n    }\n\n    function getEnergyCounter() public view returns (string memory) {\n        return uint2str(counter);\n    }\n\n    function uint2str(uint _i) internal pure returns (string memory _uintAsString) {\n        if (_i == 0) {\n            return \"0\";\n        }\n        uint j = _i;\n        uint len;\n        while (j != 0) {\n            len++;\n            j /= 10;\n        }\n        bytes memory bstr = new bytes(len);\n        uint k = len - 1;\n        while (_i != 0) {\n            bstr[k--] = byte(uint8(48 + _i % 10));\n            _i /= 10;\n        }\n        return string(bstr);\n    }\n}",
  "sourcePath": "/home/sergios/BlockchainDAO/contracts/EnergyData2.sol",
  "compiler": {
    "name": "solc",
    "version": "0.5.16+commit.9c3226ce.Emscripten.clang"
  },
  "schemaVersion": "3.4.1",
  "updatedAt": "2022-03-15T19:04:18.901Z",
  "networkType": "ethereum",
  "devdoc": {
    "methods": {}
  },
  "userdoc": {
    "methods": {}
  }
}