{
  "contractName": "EnergyData2",
  "abi": [
    {
      "inputs": [],
      "payable": false,
      "stateMutability": "nonpayable",
      "type": "constructor"
    },
    {
      "constant": true,
      "inputs": [],
      "name": "counter",
      "outputs": [
        {
          "internalType": "uint256",
          "name": "",
          "type": "uint256"
        }
      ],
      "payable": false,
      "stateMutability": "view",
      "type": "function"
    },
    {
      "constant": true,
      "inputs": [
        {
          "internalType": "uint256",
          "name": "",
          "type": "uint256"
        }
      ],
      "name": "energyData",
      "outputs": [
        {
          "internalType": "string",
          "name": "timestamp",
          "type": "string"
        },
        {
          "internalType": "string",
          "name": "energy",
          "type": "string"
        }
      ],
      "payable": false,
      "stateMutability": "view",
      "type": "function"
    },
    {
      "constant": true,
      "inputs": [],
      "name": "getOwner",
      "outputs": [
        {
          "internalType": "address",
          "name": "",
          "type": "address"
        }
      ],
      "payable": false,
      "stateMutability": "view",
      "type": "function"
    },
    {
      "constant": false,
      "inputs": [
        {
          "internalType": "string",
          "name": "_timestamp",
          "type": "string"
        },
        {
          "internalType": "string",
          "name": "_energy",
          "type": "string"
        }
      ],
      "name": "postEnergyData",
      "outputs": [],
      "payable": false,
      "stateMutability": "nonpayable",
      "type": "function"
    },
    {
      "constant": true,
      "inputs": [
        {
          "internalType": "uint256",
          "name": "index",
          "type": "uint256"
        }
      ],
      "name": "getEnergyData",
      "outputs": [
        {
          "internalType": "string",
          "name": "",
          "type": "string"
        },
        {
          "internalType": "string",
          "name": "",
          "type": "string"
        }
      ],
      "payable": false,
      "stateMutability": "view",
      "type": "function"
    },
    {
      "constant": true,
      "inputs": [],
      "name": "getEnergyCounter",
      "outputs": [
        {
          "internalType": "string",
          "name": "",
          "type": "string"
        }
      ],
      "payable": false,
      "stateMutability": "view",
      "type": "function"
    }
  ],
  "bytecode": "0x6080604052600060015534801561001557600080fd5b5033600260006101000a81548173ffffffffffffffffffffffffffffffffffffffff021916908373ffffffffffffffffffffffffffffffffffffffff160217905550610b15806100666000396000f3fe608060405234801561001057600080fd5b50600436106100625760003560e01c8063297128191461006757806361bc221a146100ea57806361f2c1e814610108578063893d20e81461021b578063902557cb14610265578063beb8c972146103b7575b600080fd5b61006f6104ca565b6040518080602001828103825283818151815260200191508051906020019080838360005b838110156100af578082015181840152602081019050610094565b50505050905090810190601f1680156100dc5780820380516001836020036101000a031916815260200191505b509250505060405180910390f35b6100f26104dc565b6040518082815260200191505060405180910390f35b6101346004803603602081101561011e57600080fd5b81019080803590602001909291905050506104e2565b604051808060200180602001838103835285818151815260200191508051906020019080838360005b8381101561017857808201518184015260208101905061015d565b50505050905090810190601f1680156101a55780820380516001836020036101000a031916815260200191505b50838103825284818151815260200191508051906020019080838360005b838110156101de5780820151818401526020810190506101c3565b50505050905090810190601f16801561020b5780820380516001836020036101000a031916815260200191505b5094505050505060405180910390f35b610223610636565b604051808273ffffffffffffffffffffffffffffffffffffffff1673ffffffffffffffffffffffffffffffffffffffff16815260200191505060405180910390f35b6103b56004803603604081101561027b57600080fd5b810190808035906020019064010000000081111561029857600080fd5b8201836020820111156102aa57600080fd5b803590602001918460018302840111640100000000831117156102cc57600080fd5b91908080601f016020809104026020016040519081016040528093929190818152602001838380828437600081840152601f19601f8201169050808301925050505050505091929192908035906020019064010000000081111561032f57600080fd5b82018360208201111561034157600080fd5b8035906020019184600183028401116401000000008311171561036357600080fd5b91908080601f016020809104026020016040519081016040528093929190818152602001838380828437600081840152601f19601f820116905080830192505050505050509192919290505050610660565b005b6103e3600480360360208110156103cd57600080fd5b8101908080359060200190929190505050610767565b604051808060200180602001838103835285818151815260200191508051906020019080838360005b8381101561042757808201518184015260208101905061040c565b50505050905090810190601f1680156104545780820380516001836020036101000a031916815260200191505b50838103825284818151815260200191508051906020019080838360005b8381101561048d578082015181840152602081019050610472565b50505050905090810190601f1680156104ba5780820380516001836020036101000a031916815260200191505b5094505050505060405180910390f35b60606104d76001546108db565b905090565b60015481565b6000602052806000526040600020600091509050806000018054600181600116156101000203166002900480601f01602080910402602001604051908101604052809291908181526020018280546001816001161561010002031660029004801561058e5780601f106105635761010080835404028352916020019161058e565b820191906000526020600020905b81548152906001019060200180831161057157829003601f168201915b505050505090806001018054600181600116156101000203166002900480601f01602080910402602001604051908101604052809291908181526020018280546001816001161561010002031660029004801561062c5780601f106106015761010080835404028352916020019161062c565b820191906000526020600020905b81548152906001019060200180831161060f57829003601f168201915b5050505050905082565b6000600260009054906101000a900473ffffffffffffffffffffffffffffffffffffffff16905090565b3373ffffffffffffffffffffffffffffffffffffffff16600260009054906101000a900473ffffffffffffffffffffffffffffffffffffffff1673ffffffffffffffffffffffffffffffffffffffff1614610706576040517f08c379a0000000000000000000000000000000000000000000000000000000008152600401808060200182810382526033815260200180610aae6033913960400191505060405180910390fd5b60016000815480929190600101919050555060008060006001548152602001908152602001600020905082816000019080519060200190610748929190610a08565b5081816001019080519060200190610761929190610a08565b50505050565b60608060606000808581526020019081526020016000206000018054600181600116156101000203166002900480601f0160208091040260200160405190810160405280929190818152602001828054600181600116156101000203166002900480156108155780601f106107ea57610100808354040283529160200191610815565b820191906000526020600020905b8154815290600101906020018083116107f857829003601f168201915b5050505050905060606000808681526020019081526020016000206001018054600181600116156101000203166002900480601f0160208091040260200160405190810160405280929190818152602001828054600181600116156101000203166002900480156108c75780601f1061089c576101008083540402835291602001916108c7565b820191906000526020600020905b8154815290600101906020018083116108aa57829003601f168201915b505050505090508181935093505050915091565b60606000821415610923576040518060400160405280600181526020017f30000000000000000000000000000000000000000000000000000000000000008152509050610a03565b600082905060005b6000821461094d578080600101915050600a828161094557fe5b04915061092b565b6060816040519080825280601f01601f1916602001820160405280156109825781602001600182028038833980820191505090505b50905060006001830390505b600086146109fb57600a86816109a057fe5b0660300160f81b828280600190039350815181106109ba57fe5b60200101907effffffffffffffffffffffffffffffffffffffffffffffffffffffffffffff1916908160001a905350600a86816109f357fe5b04955061098e565b819450505050505b919050565b828054600181600116156101000203166002900490600052602060002090601f016020900481019282601f10610a4957805160ff1916838001178555610a77565b82800160010185558215610a77579182015b82811115610a76578251825591602001919060010190610a5b565b5b509050610a849190610a88565b5090565b610aaa91905b80821115610aa6576000816000905550600101610a8e565b5090565b9056fe546869732066756e6374696f6e206973207265737472696374656420746f2074686520636f6e74726163742773206f776e6572a265627a7a7231582097bf02db9b4a6452636229a04530f4abe3e6fddfc63e432dd8ff3f3d8cd621f164736f6c63430005100032",
  "source": "// SPDX-License-Identifier: GPL-3.0\n\npragma solidity ^0.5.16;\n\ncontract EnergyData2 {\n    struct energyDatum{\n        string timestamp;\n        string energy;\n    }\n\n    mapping(uint256 => energyDatum) public energyData;\n    uint256 public counter = 0;\n    address private owner;\n\n    constructor() public{\n        owner = msg.sender;\n    }\n    \n    modifier isOwner {\n        require(owner == msg.sender, \"This function is restricted to the contract's owner\");\n        _;\n    }\n\n    function getOwner() public view returns (address) {\n        return owner;\n    }\n\n    function postEnergyData(string memory _timestamp, string memory _energy) public isOwner {\n        counter++;\n        energyDatum storage kati = energyData[counter];\n        kati.timestamp = _timestamp;\n        kati.energy = _energy;\n    }\n\n    function getEnergyData(uint index) public view returns (string memory, string memory) {\n        string memory datumTimestamp = energyData[index].timestamp;\n        string memory datumEnergy = energyData[index].energy;\n\n        return (datumTimestamp, datumEnergy);\n    }\n\n    function getEnergyCounter() public view returns (string memory) {\n        return uint2str(counter);\n    }\n\n    function uint2str(uint _i) internal pure returns (string memory _uintAsString) {\n        if (_i == 0) {\n            return \"0\";\n        }\n        uint j = _i;\n        uint len;\n        while (j != 0) {\n            len++;\n            j /= 10;\n        }\n        bytes memory bstr = new bytes(len);\n        uint k = len - 1;\n        while (_i != 0) {\n            bstr[k--] = byte(uint8(48 + _i % 10));\n            _i /= 10;\n        }\n        return string(bstr);\n    }\n}",
  "sourcePath": "/home/sergios/BlockchainDAO/contracts/EnergyData2.sol",
  "compiler": {
    "name": "solc",
    "version": "0.5.16+commit.9c3226ce.Emscripten.clang"
  },
  "schemaVersion": "3.4.1",
  "updatedAt": "2021-11-10T18:31:41.264Z",
  "networkType": "ethereum",
  "devdoc": {
    "methods": {}
  },
  "userdoc": {
    "methods": {}
  }
}