{
  "contractName": "Vote",
  "abi": [
    {
      "constant": true,
      "inputs": [
        {
          "internalType": "address",
          "name": "",
          "type": "address"
        }
      ],
      "name": "energyPercentage",
      "outputs": [
        {
          "internalType": "uint256",
          "name": "",
          "type": "uint256"
        }
      ],
      "payable": false,
      "stateMutability": "view",
      "type": "function"
    },
    {
      "constant": true,
      "inputs": [],
      "name": "isFinished",
      "outputs": [
        {
          "internalType": "bool",
          "name": "",
          "type": "bool"
        }
      ],
      "payable": false,
      "stateMutability": "view",
      "type": "function"
    },
    {
      "constant": true,
      "inputs": [],
      "name": "mNo",
      "outputs": [
        {
          "internalType": "uint256",
          "name": "",
          "type": "uint256"
        }
      ],
      "payable": false,
      "stateMutability": "view",
      "type": "function"
    },
    {
      "constant": true,
      "inputs": [],
      "name": "mYes",
      "outputs": [
        {
          "internalType": "uint256",
          "name": "",
          "type": "uint256"
        }
      ],
      "payable": false,
      "stateMutability": "view",
      "type": "function"
    },
    {
      "constant": true,
      "inputs": [],
      "name": "message",
      "outputs": [
        {
          "internalType": "string",
          "name": "",
          "type": "string"
        }
      ],
      "payable": false,
      "stateMutability": "view",
      "type": "function"
    },
    {
      "constant": true,
      "inputs": [],
      "name": "numVotesLeft",
      "outputs": [
        {
          "internalType": "uint16",
          "name": "",
          "type": "uint16"
        }
      ],
      "payable": false,
      "stateMutability": "view",
      "type": "function"
    },
    {
      "constant": true,
      "inputs": [],
      "name": "org1Sum",
      "outputs": [
        {
          "internalType": "uint256",
          "name": "",
          "type": "uint256"
        }
      ],
      "payable": false,
      "stateMutability": "view",
      "type": "function"
    },
    {
      "constant": true,
      "inputs": [],
      "name": "org2Sum",
      "outputs": [
        {
          "internalType": "uint256",
          "name": "",
          "type": "uint256"
        }
      ],
      "payable": false,
      "stateMutability": "view",
      "type": "function"
    },
    {
      "constant": true,
      "inputs": [],
      "name": "org3Sum",
      "outputs": [
        {
          "internalType": "uint256",
          "name": "",
          "type": "uint256"
        }
      ],
      "payable": false,
      "stateMutability": "view",
      "type": "function"
    },
    {
      "constant": true,
      "inputs": [],
      "name": "org4Sum",
      "outputs": [
        {
          "internalType": "uint256",
          "name": "",
          "type": "uint256"
        }
      ],
      "payable": false,
      "stateMutability": "view",
      "type": "function"
    },
    {
      "constant": true,
      "inputs": [
        {
          "internalType": "uint256",
          "name": "",
          "type": "uint256"
        }
      ],
      "name": "proposals",
      "outputs": [
        {
          "internalType": "string",
          "name": "name",
          "type": "string"
        },
        {
          "internalType": "uint256",
          "name": "voteCount",
          "type": "uint256"
        }
      ],
      "payable": false,
      "stateMutability": "view",
      "type": "function"
    },
    {
      "constant": true,
      "inputs": [],
      "name": "voteExists",
      "outputs": [
        {
          "internalType": "bool",
          "name": "",
          "type": "bool"
        }
      ],
      "payable": false,
      "stateMutability": "view",
      "type": "function"
    },
    {
      "constant": true,
      "inputs": [
        {
          "internalType": "address",
          "name": "",
          "type": "address"
        }
      ],
      "name": "voters",
      "outputs": [
        {
          "internalType": "bool",
          "name": "voted",
          "type": "bool"
        },
        {
          "internalType": "uint256",
          "name": "vote",
          "type": "uint256"
        }
      ],
      "payable": false,
      "stateMutability": "view",
      "type": "function"
    },
    {
      "constant": true,
      "inputs": [],
      "name": "winnerProposalName",
      "outputs": [
        {
          "internalType": "string",
          "name": "",
          "type": "string"
        }
      ],
      "payable": false,
      "stateMutability": "view",
      "type": "function"
    },
    {
      "constant": true,
      "inputs": [
        {
          "internalType": "address",
          "name": "account",
          "type": "address"
        }
      ],
      "name": "getEnergyPercentage",
      "outputs": [
        {
          "internalType": "uint256",
          "name": "",
          "type": "uint256"
        }
      ],
      "payable": false,
      "stateMutability": "view",
      "type": "function"
    },
    {
      "constant": true,
      "inputs": [
        {
          "internalType": "address",
          "name": "account",
          "type": "address"
        }
      ],
      "name": "getEnergySum",
      "outputs": [
        {
          "internalType": "uint256",
          "name": "",
          "type": "uint256"
        }
      ],
      "payable": false,
      "stateMutability": "view",
      "type": "function"
    },
    {
      "constant": false,
      "inputs": [
        {
          "internalType": "uint256",
          "name": "sum",
          "type": "uint256"
        }
      ],
      "name": "setEnergySum",
      "outputs": [],
      "payable": false,
      "stateMutability": "nonpayable",
      "type": "function"
    },
    {
      "constant": false,
      "inputs": [],
      "name": "createVote",
      "outputs": [],
      "payable": false,
      "stateMutability": "nonpayable",
      "type": "function"
    },
    {
      "constant": false,
      "inputs": [
        {
          "internalType": "uint256",
          "name": "proposal",
          "type": "uint256"
        }
      ],
      "name": "postVote",
      "outputs": [],
      "payable": false,
      "stateMutability": "nonpayable",
      "type": "function"
    },
    {
      "constant": false,
      "inputs": [],
      "name": "updateVoteState",
      "outputs": [],
      "payable": false,
      "stateMutability": "nonpayable",
      "type": "function"
    }
  ],
  "bytecode": "0x608060405260405180602001604052806000815250600090805190602001906200002b9291906200022d565b506000600160006101000a81548160ff02191690831515021790555060006001806101000a81548160ff0219169083151502179055506040518060200160405280600081525060029080519060200190620000889291906200022d565b50600060035560006004556004600660006101000a81548161ffff021916908361ffff16021790555073a7e2d1f80b92b75b3fd187490b2b01550043d0b3600660026101000a81548173ffffffffffffffffffffffffffffffffffffffff021916908373ffffffffffffffffffffffffffffffffffffffff16021790555073a02a9a8d092a47dc4e7abf569a9b392d0ce07e43600760006101000a81548173ffffffffffffffffffffffffffffffffffffffff021916908373ffffffffffffffffffffffffffffffffffffffff16021790555073448f178c88c0fc73ea74714b1e0494781548ff4c600860006101000a81548173ffffffffffffffffffffffffffffffffffffffff021916908373ffffffffffffffffffffffffffffffffffffffff160217905550737188d086e0415b0b394a67325fc5c4534262e76a600960006101000a81548173ffffffffffffffffffffffffffffffffffffffff021916908373ffffffffffffffffffffffffffffffffffffffff1602179055506000600a556000600b556000600c556000600d553480156200022657600080fd5b50620002dc565b828054600181600116156101000203166002900490600052602060002090601f016020900481019282601f106200027057805160ff1916838001178555620002a1565b82800160010185558215620002a1579182015b82811115620002a057825182559160200191906001019062000283565b5b509050620002b09190620002b4565b5090565b620002d991905b80821115620002d5576000816000905550600101620002bb565b5090565b90565b611e5080620002ec6000396000f3fe608060405234801561001057600080fd5b506004361061012c5760003560e01c80636a678a8a116100ad578063ad9e75cb11610071578063ad9e75cb146104a9578063c6f66334146104c7578063e21f37ce146104e5578063faadee2514610568578063fee54ef5146105c05761012c565b80636a678a8a146103555780637b35296214610383578063831597c0146103a5578063a0f2c291146103c3578063a3ec138d146104465761012c565b80634bd82b2f116100f45780634bd82b2f14610273578063586cd5461461027d578063631e1988146102d55780636891a54c146102f3578063694ff0f21461034b5761012c565b8063013cf08b146101315780633c107acf146101df5780633f771bbe146101fd578063441eea1e1461022357806349712b3a14610251575b600080fd5b61015d6004803603602081101561014757600080fd5b81019080803590602001909291905050506105de565b6040518080602001838152602001828103825284818151815260200191508051906020019080838360005b838110156101a3578082015181840152602081019050610188565b50505050905090810190601f1680156101d05780820380516001836020036101000a031916815260200191505b50935050505060405180910390f35b6101e76106a7565b6040518082815260200191505060405180910390f35b6102056106ad565b604051808261ffff1661ffff16815260200191505060405180910390f35b61024f6004803603602081101561023957600080fd5b81019080803590602001909291905050506106c1565b005b61025961084b565b604051808215151515815260200191505060405180910390f35b61027b61085e565b005b6102bf6004803603602081101561029357600080fd5b81019080803573ffffffffffffffffffffffffffffffffffffffff169060200190929190505050610e94565b6040518082815260200191505060405180910390f35b6102dd610eac565b6040518082815260200191505060405180910390f35b6103356004803603602081101561030957600080fd5b81019080803573ffffffffffffffffffffffffffffffffffffffff169060200190929190505050610eb2565b6040518082815260200191505060405180910390f35b61035361103a565b005b6103816004803603602081101561036b57600080fd5b810190808035906020019092919050505061168a565b005b61038b611a04565b604051808215151515815260200191505060405180910390f35b6103ad611a16565b6040518082815260200191505060405180910390f35b6103cb611a1c565b6040518080602001828103825283818151815260200191508051906020019080838360005b8381101561040b5780820151818401526020810190506103f0565b50505050905090810190601f1680156104385780820380516001836020036101000a031916815260200191505b509250505060405180910390f35b6104886004803603602081101561045c57600080fd5b81019080803573ffffffffffffffffffffffffffffffffffffffff169060200190929190505050611aba565b60405180831515151581526020018281526020019250505060405180910390f35b6104b1611aeb565b6040518082815260200191505060405180910390f35b6104cf611af1565b6040518082815260200191505060405180910390f35b6104ed611af7565b6040518080602001828103825283818151815260200191508051906020019080838360005b8381101561052d578082015181840152602081019050610512565b50505050905090810190601f16801561055a5780820380516001836020036101000a031916815260200191505b509250505060405180910390f35b6105aa6004803603602081101561057e57600080fd5b81019080803573ffffffffffffffffffffffffffffffffffffffff169060200190929190505050611b95565b6040518082815260200191505060405180910390f35b6105c8611bde565b6040518082815260200191505060405180910390f35b600581815481106105eb57fe5b9060005260206000209060020201600091509050806000018054600181600116156101000203166002900480601f0160208091040260200160405190810160405280929190818152602001828054600181600116156101000203166002900480156106975780601f1061066c57610100808354040283529160200191610697565b820191906000526020600020905b81548152906001019060200180831161067a57829003601f168201915b5050505050908060010154905082565b600a5481565b600660009054906101000a900461ffff1681565b600660029054906101000a900473ffffffffffffffffffffffffffffffffffffffff1673ffffffffffffffffffffffffffffffffffffffff163373ffffffffffffffffffffffffffffffffffffffff1614156107235780600a81905550610848565b600760009054906101000a900473ffffffffffffffffffffffffffffffffffffffff1673ffffffffffffffffffffffffffffffffffffffff163373ffffffffffffffffffffffffffffffffffffffff1614156107855780600b81905550610847565b600860009054906101000a900473ffffffffffffffffffffffffffffffffffffffff1673ffffffffffffffffffffffffffffffffffffffff163373ffffffffffffffffffffffffffffffffffffffff1614156107e75780600c81905550610846565b600960009054906101000a900473ffffffffffffffffffffffffffffffffffffffff1673ffffffffffffffffffffffffffffffffffffffff163373ffffffffffffffffffffffffffffffffffffffff1614156108455780600d819055505b5b5b5b50565b600160009054906101000a900460ff1681565b600660029054906101000a900473ffffffffffffffffffffffffffffffffffffffff1673ffffffffffffffffffffffffffffffffffffffff163373ffffffffffffffffffffffffffffffffffffffff1614806109075750600760009054906101000a900473ffffffffffffffffffffffffffffffffffffffff1673ffffffffffffffffffffffffffffffffffffffff163373ffffffffffffffffffffffffffffffffffffffff16145b8061095f5750600860009054906101000a900473ffffffffffffffffffffffffffffffffffffffff1673ffffffffffffffffffffffffffffffffffffffff163373ffffffffffffffffffffffffffffffffffffffff16145b806109b75750600960009054906101000a900473ffffffffffffffffffffffffffffffffffffffff1673ffffffffffffffffffffffffffffffffffffffff163373ffffffffffffffffffffffffffffffffffffffff16145b610a0c576040517f08c379a0000000000000000000000000000000000000000000000000000000008152600401808060200182810382526041815260200180611d956041913960600191505060405180910390fd5b600660009054906101000a900461ffff1661ffff166005600181548110610a2f57fe5b906000526020600020906002020160010154016005600081548110610a5057fe5b9060005260206000209060020201600101541115610cdb576000600160006101000a81548160ff0219169083151502179055506040518060400160405280600381526020017f596573000000000000000000000000000000000000000000000000000000000081525060009080519060200190610ace929190611c27565b506000600d54600c54600b54600a540101019050610aee600a5482611be4565b600e6000600660029054906101000a900473ffffffffffffffffffffffffffffffffffffffff1673ffffffffffffffffffffffffffffffffffffffff1673ffffffffffffffffffffffffffffffffffffffff16815260200190815260200160002081905550610b5f600b5482611be4565b600e6000600760009054906101000a900473ffffffffffffffffffffffffffffffffffffffff1673ffffffffffffffffffffffffffffffffffffffff1673ffffffffffffffffffffffffffffffffffffffff16815260200190815260200160002081905550610bd0600c5482611be4565b600e6000600860009054906101000a900473ffffffffffffffffffffffffffffffffffffffff1673ffffffffffffffffffffffffffffffffffffffff1673ffffffffffffffffffffffffffffffffffffffff16815260200190815260200160002081905550610c41600d5482611be4565b600e6000600960009054906101000a900473ffffffffffffffffffffffffffffffffffffffff1673ffffffffffffffffffffffffffffffffffffffff1673ffffffffffffffffffffffffffffffffffffffff16815260200190815260200160002081905550604051806060016040528060248152602001611df86024913960029080519060200190610cd4929190611c27565b5050610e92565b600660009054906101000a900461ffff1661ffff166005600081548110610cfe57fe5b906000526020600020906002020160010154016005600181548110610d1f57fe5b9060005260206000209060020201600101541115610dd2576000600160006101000a81548160ff0219169083151502179055506040518060400160405280600281526020017f4e6f00000000000000000000000000000000000000000000000000000000000081525060009080519060200190610d9d929190611c27565b50604051806060016040528060228152602001611dd66022913960029080519060200190610dcc929190611c27565b50610e91565b6040518060400160405280601281526020017f566f7465206e6f742066696e697368656421000000000000000000000000000081525060029080519060200190610e1d929190611c27565b506005600081548110610e2c57fe5b9060005260206000209060020201600101546003819055506005600181548110610e5257fe5b9060005260206000209060020201600101546004819055506040518060200160405280600081525060009080519060200190610e8f929190611c27565b505b5b565b600e6020528060005260406000206000915090505481565b600c5481565b6000600660029054906101000a900473ffffffffffffffffffffffffffffffffffffffff1673ffffffffffffffffffffffffffffffffffffffff168273ffffffffffffffffffffffffffffffffffffffff161415610f1457600a549050611035565b600760009054906101000a900473ffffffffffffffffffffffffffffffffffffffff1673ffffffffffffffffffffffffffffffffffffffff168273ffffffffffffffffffffffffffffffffffffffff161415610f7457600b549050611035565b600860009054906101000a900473ffffffffffffffffffffffffffffffffffffffff1673ffffffffffffffffffffffffffffffffffffffff168273ffffffffffffffffffffffffffffffffffffffff161415610fd457600c549050611035565b600960009054906101000a900473ffffffffffffffffffffffffffffffffffffffff1673ffffffffffffffffffffffffffffffffffffffff168273ffffffffffffffffffffffffffffffffffffffff16141561103457600d549050611035565b5b919050565b600660029054906101000a900473ffffffffffffffffffffffffffffffffffffffff1673ffffffffffffffffffffffffffffffffffffffff163373ffffffffffffffffffffffffffffffffffffffff1614806110e35750600760009054906101000a900473ffffffffffffffffffffffffffffffffffffffff1673ffffffffffffffffffffffffffffffffffffffff163373ffffffffffffffffffffffffffffffffffffffff16145b8061113b5750600860009054906101000a900473ffffffffffffffffffffffffffffffffffffffff1673ffffffffffffffffffffffffffffffffffffffff163373ffffffffffffffffffffffffffffffffffffffff16145b806111935750600960009054906101000a900473ffffffffffffffffffffffffffffffffffffffff1673ffffffffffffffffffffffffffffffffffffffff163373ffffffffffffffffffffffffffffffffffffffff16145b6111e8576040517f08c379a0000000000000000000000000000000000000000000000000000000008152600401808060200182810382526041815260200180611d956041913960600191505060405180910390fd5b6000600580549050905060008090505b8181101561124957600580548061120b57fe5b6001900381819060005260206000209060020201600080820160006112309190611ca7565b60018201600090555050905580806001019150506111f8565b50600560405180604001604052806040518060400160405280600381526020017f5965730000000000000000000000000000000000000000000000000000000000815250815260200160008152509080600181540180825580915050906001820390600052602060002090600202016000909192909190915060008201518160000190805190602001906112de929190611cef565b5060208201518160010155505050600560405180604001604052806040518060400160405280600281526020017f4e6f00000000000000000000000000000000000000000000000000000000000081525081526020016000815250908060018154018082558091505090600182039060005260206000209060020201600090919290919091506000820151816000019080519060200190611380929190611cef565b506020820151816001015550505060018060006101000a81548160ff02191690831515021790555060405180602001604052806000815250600090805190602001906113cd929190611c27565b506040518060400160405280601a81526020017f566f74652063726561746564207375636365737366756c6c792100000000000081525060029080519060200190611419929190611c27565b50600560008154811061142857fe5b906000526020600020906002020160010154600381905550600560018154811061144e57fe5b9060005260206000209060020201600101546004819055506000600f6000600660029054906101000a900473ffffffffffffffffffffffffffffffffffffffff1673ffffffffffffffffffffffffffffffffffffffff1673ffffffffffffffffffffffffffffffffffffffff168152602001908152602001600020905060008160000160006101000a81548160ff021916908315150217905550600f6000600760009054906101000a900473ffffffffffffffffffffffffffffffffffffffff1673ffffffffffffffffffffffffffffffffffffffff1673ffffffffffffffffffffffffffffffffffffffff168152602001908152602001600020905060008160000160006101000a81548160ff021916908315150217905550600f6000600860009054906101000a900473ffffffffffffffffffffffffffffffffffffffff1673ffffffffffffffffffffffffffffffffffffffff1673ffffffffffffffffffffffffffffffffffffffff168152602001908152602001600020905060008160000160006101000a81548160ff021916908315150217905550600f6000600960009054906101000a900473ffffffffffffffffffffffffffffffffffffffff1673ffffffffffffffffffffffffffffffffffffffff1673ffffffffffffffffffffffffffffffffffffffff168152602001908152602001600020905060008160000160006101000a81548160ff0219169083151502179055506004600660006101000a81548161ffff021916908361ffff1602179055505050565b600660029054906101000a900473ffffffffffffffffffffffffffffffffffffffff1673ffffffffffffffffffffffffffffffffffffffff163373ffffffffffffffffffffffffffffffffffffffff1614806117335750600760009054906101000a900473ffffffffffffffffffffffffffffffffffffffff1673ffffffffffffffffffffffffffffffffffffffff163373ffffffffffffffffffffffffffffffffffffffff16145b8061178b5750600860009054906101000a900473ffffffffffffffffffffffffffffffffffffffff1673ffffffffffffffffffffffffffffffffffffffff163373ffffffffffffffffffffffffffffffffffffffff16145b806117e35750600960009054906101000a900473ffffffffffffffffffffffffffffffffffffffff1673ffffffffffffffffffffffffffffffffffffffff163373ffffffffffffffffffffffffffffffffffffffff16145b611838576040517f08c379a0000000000000000000000000000000000000000000000000000000008152600401808060200182810382526041815260200180611d956041913960600191505060405180910390fd5b6000600f60003373ffffffffffffffffffffffffffffffffffffffff1673ffffffffffffffffffffffffffffffffffffffff16815260200190815260200160002090508060000160009054906101000a900460ff16156118e3576040518060400160405280600e81526020017f416c726561647920766f7465642e000000000000000000000000000000000000815250600290805190602001906118dd929190611c27565b50611a00565b60018160000160006101000a81548160ff0219169083151502179055508181600101819055506001600660008282829054906101000a900461ffff160392506101000a81548161ffff021916908361ffff16021790555060016005838154811061194957fe5b9060005260206000209060020201600101600082825401925050819055506040518060400160405280601381526020017f566f746564207375636365737366756c6c792100000000000000000000000000815250600290805190602001906119b2929190611c27565b5060056000815481106119c157fe5b90600052602060002090600202016001015460038190555060056001815481106119e757fe5b9060005260206000209060020201600101546004819055505b5050565b6001809054906101000a900460ff1681565b600d5481565b60008054600181600116156101000203166002900480601f016020809104026020016040519081016040528092919081815260200182805460018160011615610100020316600290048015611ab25780601f10611a8757610100808354040283529160200191611ab2565b820191906000526020600020905b815481529060010190602001808311611a9557829003601f168201915b505050505081565b600f6020528060005260406000206000915090508060000160009054906101000a900460ff16908060010154905082565b600b5481565b60045481565b60028054600181600116156101000203166002900480601f016020809104026020016040519081016040528092919081815260200182805460018160011615610100020316600290048015611b8d5780601f10611b6257610100808354040283529160200191611b8d565b820191906000526020600020905b815481529060010190602001808311611b7057829003601f168201915b505050505081565b6000600e60008373ffffffffffffffffffffffffffffffffffffffff1673ffffffffffffffffffffffffffffffffffffffff168152602001908152602001600020549050919050565b60035481565b600080600a83856103e80281611bf657fe5b0481611bfe57fe5b069050828460640281611c0d57fe5b0491506005811115611c20576001820191505b5092915050565b828054600181600116156101000203166002900490600052602060002090601f016020900481019282601f10611c6857805160ff1916838001178555611c96565b82800160010185558215611c96579182015b82811115611c95578251825591602001919060010190611c7a565b5b509050611ca39190611d6f565b5090565b50805460018160011615610100020316600290046000825580601f10611ccd5750611cec565b601f016020900490600052602060002090810190611ceb9190611d6f565b5b50565b828054600181600116156101000203166002900490600052602060002090601f016020900481019282601f10611d3057805160ff1916838001178555611d5e565b82800160010185558215611d5e579182015b82811115611d5d578251825591602001919060010190611d42565b5b509050611d6b9190611d6f565b5090565b611d9191905b80821115611d8d576000816000905550600101611d75565b5090565b9056fe546869732066756e6374696f6e206973207265737472696374656420746f2074686520616464726573736573206f6620746865206f7267616e697a6174696f6e7354686520766f746520697320646f6e652e2054686520726573756c74206973204e6f54686520766f746520697320646f6e652e2054686520726573756c74206973205965732ea265627a7a72315820c63950ad3f58d1d264b8ed98b636c10a93ae47ef9ae156bdf51086fc0a0f53f364736f6c63430005100032",
  "source": "// SPDX-License-Identifier: GPL-3.0\n\npragma solidity ^0.5.16;\n\ncontract Vote {\n    // my structs\n    struct Voter {\n        bool voted;  // if true, that person already voted\n        uint vote;   // index of the voted proposal\n    }\n\n    struct Proposal {\n        string name;   // short name (up to 32 bytes)\n        uint voteCount; // number of accumulated votes\n    }\n\n    // my variables\n    string public winnerProposalName = \"\";\n    bool public voteExists = false;\n    bool public isFinished = false;\n    string public message = \"\";\n    uint public mYes = 0;\n    uint public mNo = 0;\n    Proposal[] public proposals;\n    uint16 public numVotesLeft = 4;\n    \n    //TODO you should inherit the addresses from sign up\n    address org1 = 0xa7e2d1F80B92b75B3fd187490b2b01550043D0b3;\n    address org2 = 0xa02A9A8D092a47dc4E7ABf569a9b392D0Ce07e43;\n    address org3 = 0x448F178C88C0fC73eA74714b1e0494781548ff4C;\n    address org4 = 0x7188D086E0415B0b394a67325Fc5c4534262e76a;\n    uint public org1Sum = 0;\n    uint public org2Sum = 0;\n    uint public org3Sum = 0;\n    uint public org4Sum = 0;\n\n    // my mappings\n    mapping(address => uint) public energyPercentage;\n    mapping(address => Voter) public voters;\n    \n    // my modifiers\n    modifier isOrg {\n        require(msg.sender == org1 || msg.sender == org2 || msg.sender == org3 || msg.sender == org4, \"This function is restricted to the addresses of the organizations\");\n        _;\n    }\n\n    // and finally: my functions()\n    function getEnergyPercentage(address account) public view returns (uint) {\n        return energyPercentage[account];\n    }\n\n    function getEnergySum(address account) public view returns (uint) {\n        if(account == org1){\n            return org1Sum;\n        } else if(account == org2){\n            return org2Sum;\n        } else if(account == org3){\n            return org3Sum;\n        } else if(account == org4){\n            return org4Sum;\n        }\n    }\n\n    function setEnergySum(uint sum) public {\n        if(msg.sender == org1){\n            org1Sum = sum;\n        } else if(msg.sender == org2){\n            org2Sum = sum;\n        } else if(msg.sender == org3){\n            org3Sum = sum;\n        } else if(msg.sender == org4){\n            org4Sum = sum;\n        }\n    }\n    \n    function createVote() public isOrg {   \n        uint len = proposals.length;\n        for(uint k = 0; k < len; k++){\n            proposals.pop();\n        }\n        proposals.push(Proposal({\n                name: \"Yes\",\n                voteCount: 0\n            }));\n        proposals.push(Proposal({\n                name: \"No\",\n                voteCount: 0\n            }));\n        voteExists = true;\n        winnerProposalName = \"\";\n        message = \"Vote created successfully!\";\n        mYes = proposals[0].voteCount;\n        mNo = proposals[1].voteCount;\n        \n        Voter storage sender = voters[org1];\n        sender.voted = false;\n        sender = voters[org2];\n        sender.voted = false;\n        sender = voters[org3];\n        sender.voted = false;\n        sender = voters[org4];\n        sender.voted = false;\n        numVotesLeft = 4;\n    }\n      \n    function postVote(uint proposal) public isOrg {\n        Voter storage sender = voters[msg.sender];\n        if(sender.voted){\n            message = \"Already voted.\";\n        } else {\n            sender.voted = true;\n            sender.vote = proposal;\n            \n            numVotesLeft -= 1;\n            proposals[proposal].voteCount += 1;\n            message = \"Voted successfully!\";\n            mYes = proposals[0].voteCount;\n            mNo = proposals[1].voteCount;\n        }\n    }\n\n    function updateVoteState() public isOrg {\n        if(proposals[0].voteCount > proposals[1].voteCount + numVotesLeft){\n            voteExists = false;\n            // winnerProposalName = proposals[0].name;\n            winnerProposalName = \"Yes\";\n            uint energySumAll = org1Sum + org2Sum + org3Sum + org4Sum;\n\n            // uint per1 = energyPercentage[org1];\n            // uint per2 = energyPercentage[org2];\n            // uint per3 = energyPercentage[org3];\n            // uint per4 = energyPercentage[org4];\n            // per1 = calculatePercentage(energySum[org1], energySumAll);\n            // per2 = calculatePercentage(energySum[org2], energySumAll);\n            // per3 = calculatePercentage(energySum[org3], energySumAll);\n            // per4 = calculatePercentage(energySum[org4], energySumAll);\n            energyPercentage[org1] = calculatePercentage(org1Sum, energySumAll);\n            energyPercentage[org2] = calculatePercentage(org2Sum, energySumAll);\n            energyPercentage[org3] = calculatePercentage(org3Sum, energySumAll);\n            energyPercentage[org4] = calculatePercentage(org4Sum, energySumAll);\n            message = \"The vote is done. The result is Yes.\";\n        } else if (proposals[1].voteCount > proposals[0].voteCount + numVotesLeft){\n            voteExists = false;\n            winnerProposalName = \"No\";\n            message = \"The vote is done. The result is No\";\n        } else {\n            message = \"Vote not finished!\";\n            mYes = proposals[0].voteCount;\n            mNo = proposals[1].voteCount;\n            winnerProposalName = \"\";\n        }\n    }\n\n    function calculatePercentage( uint sum, uint sumAll ) private returns (uint result){\n        uint temp = ( ( 1000 * sum ) / sumAll ) % 10;\n        result = ( 100 * sum ) / sumAll;\n        if ( temp > 5 ) {\n            result += 1;\n        } \n    }\n}\n",
  "sourcePath": "/home/sergios/BlockchainDAO/contracts/Vote.sol",
  "compiler": {
    "name": "solc",
    "version": "0.5.16+commit.9c3226ce.Emscripten.clang"
  },
  "schemaVersion": "3.4.1",
  "updatedAt": "2021-12-01T18:11:23.306Z",
  "networkType": "ethereum",
  "devdoc": {
    "methods": {}
  },
  "userdoc": {
    "methods": {}
  }
}