{
  "contractName": "Vote",
  "abi": [
    {
      "constant": true,
      "inputs": [],
      "name": "isFinished",
      "outputs": [
        {
          "internalType": "bool",
          "name": "",
          "type": "bool"
        }
      ],
      "payable": false,
      "stateMutability": "view",
      "type": "function"
    },
    {
      "constant": true,
      "inputs": [],
      "name": "mNo",
      "outputs": [
        {
          "internalType": "uint256",
          "name": "",
          "type": "uint256"
        }
      ],
      "payable": false,
      "stateMutability": "view",
      "type": "function"
    },
    {
      "constant": true,
      "inputs": [],
      "name": "mYes",
      "outputs": [
        {
          "internalType": "uint256",
          "name": "",
          "type": "uint256"
        }
      ],
      "payable": false,
      "stateMutability": "view",
      "type": "function"
    },
    {
      "constant": true,
      "inputs": [],
      "name": "message",
      "outputs": [
        {
          "internalType": "string",
          "name": "",
          "type": "string"
        }
      ],
      "payable": false,
      "stateMutability": "view",
      "type": "function"
    },
    {
      "constant": true,
      "inputs": [],
      "name": "numVotesLeft",
      "outputs": [
        {
          "internalType": "uint16",
          "name": "",
          "type": "uint16"
        }
      ],
      "payable": false,
      "stateMutability": "view",
      "type": "function"
    },
    {
      "constant": true,
      "inputs": [
        {
          "internalType": "uint256",
          "name": "",
          "type": "uint256"
        }
      ],
      "name": "proposals",
      "outputs": [
        {
          "internalType": "string",
          "name": "name",
          "type": "string"
        },
        {
          "internalType": "uint256",
          "name": "voteCount",
          "type": "uint256"
        }
      ],
      "payable": false,
      "stateMutability": "view",
      "type": "function"
    },
    {
      "constant": true,
      "inputs": [],
      "name": "voteExists",
      "outputs": [
        {
          "internalType": "bool",
          "name": "",
          "type": "bool"
        }
      ],
      "payable": false,
      "stateMutability": "view",
      "type": "function"
    },
    {
      "constant": true,
      "inputs": [
        {
          "internalType": "address",
          "name": "",
          "type": "address"
        }
      ],
      "name": "voters",
      "outputs": [
        {
          "internalType": "bool",
          "name": "voted",
          "type": "bool"
        },
        {
          "internalType": "uint256",
          "name": "vote",
          "type": "uint256"
        }
      ],
      "payable": false,
      "stateMutability": "view",
      "type": "function"
    },
    {
      "constant": false,
      "inputs": [],
      "name": "createVote",
      "outputs": [],
      "payable": false,
      "stateMutability": "nonpayable",
      "type": "function"
    },
    {
      "constant": false,
      "inputs": [
        {
          "internalType": "uint256",
          "name": "proposal",
          "type": "uint256"
        }
      ],
      "name": "postVote",
      "outputs": [],
      "payable": false,
      "stateMutability": "nonpayable",
      "type": "function"
    },
    {
      "constant": false,
      "inputs": [],
      "name": "getWinningProposal",
      "outputs": [
        {
          "internalType": "string",
          "name": "winnerName_",
          "type": "string"
        }
      ],
      "payable": false,
      "stateMutability": "nonpayable",
      "type": "function"
    }
  ],
  "bytecode": "0x608060405260008060006101000a81548160ff02191690831515021790555060008060016101000a81548160ff02191690831515021790555060405180602001604052806000815250600190805190602001906200005f929190620001f0565b5060006002556000600355732c40ba2ff15411d8f94549996d4525b6e40c7036600460006101000a81548173ffffffffffffffffffffffffffffffffffffffff021916908373ffffffffffffffffffffffffffffffffffffffff16021790555073eab6b637e9566003f5da8d29e0765e55a1c49874600560006101000a81548173ffffffffffffffffffffffffffffffffffffffff021916908373ffffffffffffffffffffffffffffffffffffffff16021790555073eda41d794c549a0f8a613720a70359937b50e0ca600660006101000a81548173ffffffffffffffffffffffffffffffffffffffff021916908373ffffffffffffffffffffffffffffffffffffffff16021790555073a99becf4f0fdb2b2466e716b949fdf941c27cc47600760006101000a81548173ffffffffffffffffffffffffffffffffffffffff021916908373ffffffffffffffffffffffffffffffffffffffff1602179055506004600a60006101000a81548161ffff021916908361ffff160217905550348015620001e957600080fd5b506200029f565b828054600181600116156101000203166002900490600052602060002090601f016020900481019282601f106200023357805160ff191683800117855562000264565b8280016001018555821562000264579182015b828111156200026357825182559160200191906001019062000246565b5b50905062000273919062000277565b5090565b6200029c91905b80821115620002985760008160009055506001016200027e565b5090565b90565b61112680620002af6000396000f3fe608060405234801561001057600080fd5b50600436106100a95760003560e01c80637b352962116100715780637b352962146101dc578063a3ec138d146101fe578063a513462014610261578063c6f66334146102e4578063e21f37ce14610302578063fee54ef514610385576100a9565b8063013cf08b146100ae5780633f771bbe1461015c57806349712b3a14610182578063694ff0f2146101a45780636a678a8a146101ae575b600080fd5b6100da600480360360208110156100c457600080fd5b81019080803590602001909291905050506103a3565b6040518080602001838152602001828103825284818151815260200191508051906020019080838360005b83811015610120578082015181840152602081019050610105565b50505050905090810190601f16801561014d5780820380516001836020036101000a031916815260200191505b50935050505060405180910390f35b61016461046c565b604051808261ffff1661ffff16815260200191505060405180910390f35b61018a610480565b604051808215151515815260200191505060405180910390f35b6101ac610492565b005b6101da600480360360208110156101c457600080fd5b810190808035906020019092919050505061090e565b005b6101e4610ada565b604051808215151515815260200191505060405180910390f35b6102406004803603602081101561021457600080fd5b81019080803573ffffffffffffffffffffffffffffffffffffffff169060200190929190505050610aed565b60405180831515151581526020018281526020019250505060405180910390f35b610269610b1e565b6040518080602001828103825283818151815260200191508051906020019080838360005b838110156102a957808201518184015260208101905061028e565b50505050905090810190601f1680156102d65780820380516001836020036101000a031916815260200191505b509250505060405180910390f35b6102ec610eda565b6040518082815260200191505060405180910390f35b61030a610ee0565b6040518080602001828103825283818151815260200191508051906020019080838360005b8381101561034a57808201518184015260208101905061032f565b50505050905090810190601f1680156103775780820380516001836020036101000a031916815260200191505b509250505060405180910390f35b61038d610f7e565b6040518082815260200191505060405180910390f35b600981815481106103b057fe5b9060005260206000209060020201600091509050806000018054600181600116156101000203166002900480601f01602080910402602001604051908101604052809291908181526020018280546001816001161561010002031660029004801561045c5780601f106104315761010080835404028352916020019161045c565b820191906000526020600020905b81548152906001019060200180831161043f57829003601f168201915b5050505050908060010154905082565b600a60009054906101000a900461ffff1681565b6000809054906101000a900460ff1681565b6000600980549050905060008090505b818110156104f35760098054806104b557fe5b6001900381819060005260206000209060020201600080820160006104da9190610f84565b60018201600090555050905580806001019150506104a2565b50600960405180604001604052806040518060400160405280600381526020017f596573000000000000000000000000000000000000000000000000000000000081525081526020016000815250908060018154018082558091505090600182039060005260206000209060020201600090919290919091506000820151816000019080519060200190610588929190610fcc565b5060208201518160010155505050600960405180604001604052806040518060400160405280600281526020017f4e6f0000000000000000000000000000000000000000000000000000000000008152508152602001600081525090806001815401808255809150509060018203906000526020600020906002020160009091929091909150600082015181600001908051906020019061062a929190610fcc565b506020820151816001015550505060016000806101000a81548160ff0219169083151502179055506040518060400160405280601a81526020017f566f74652063726561746564207375636365737366756c6c79210000000000008152506001908051906020019061069d92919061104c565b5060096000815481106106ac57fe5b90600052602060002090600202016001015460028190555060096001815481106106d257fe5b906000526020600020906002020160010154600381905550600060086000600460009054906101000a900473ffffffffffffffffffffffffffffffffffffffff1673ffffffffffffffffffffffffffffffffffffffff1673ffffffffffffffffffffffffffffffffffffffff168152602001908152602001600020905060008160000160006101000a81548160ff02191690831515021790555060086000600560009054906101000a900473ffffffffffffffffffffffffffffffffffffffff1673ffffffffffffffffffffffffffffffffffffffff1673ffffffffffffffffffffffffffffffffffffffff168152602001908152602001600020905060008160000160006101000a81548160ff02191690831515021790555060086000600660009054906101000a900473ffffffffffffffffffffffffffffffffffffffff1673ffffffffffffffffffffffffffffffffffffffff1673ffffffffffffffffffffffffffffffffffffffff168152602001908152602001600020905060008160000160006101000a81548160ff02191690831515021790555060086000600760009054906101000a900473ffffffffffffffffffffffffffffffffffffffff1673ffffffffffffffffffffffffffffffffffffffff1673ffffffffffffffffffffffffffffffffffffffff168152602001908152602001600020905060008160000160006101000a81548160ff0219169083151502179055506004600a60006101000a81548161ffff021916908361ffff1602179055505050565b6000600860003373ffffffffffffffffffffffffffffffffffffffff1673ffffffffffffffffffffffffffffffffffffffff16815260200190815260200160002090508060000160009054906101000a900460ff16156109b9576040518060400160405280600e81526020017f416c726561647920766f7465642e000000000000000000000000000000000000815250600190805190602001906109b392919061104c565b50610ad6565b60018160000160006101000a81548160ff0219169083151502179055508181600101819055506001600a60008282829054906101000a900461ffff160392506101000a81548161ffff021916908361ffff160217905550600160098381548110610a1f57fe5b9060005260206000209060020201600101600082825401925050819055506040518060400160405280601381526020017f566f746564207375636365737366756c6c79210000000000000000000000000081525060019080519060200190610a8892919061104c565b506009600081548110610a9757fe5b9060005260206000209060020201600101546002819055506009600181548110610abd57fe5b9060005260206000209060020201600101546003819055505b5050565b600060019054906101000a900460ff1681565b60086020528060005260406000206000915090508060000160009054906101000a900460ff16908060010154905082565b6060600a60009054906101000a900461ffff1661ffff166009600181548110610b4357fe5b906000526020600020906002020160010154016009600081548110610b6457fe5b9060005260206000209060020201600101541115610b9c576001600060016101000a81548160ff021916908315150217905550610c34565b600a60009054906101000a900461ffff1661ffff166009600081548110610bbf57fe5b906000526020600020906002020160010154016009600181548110610be057fe5b9060005260206000209060020201600101541115610c18576001600060016101000a81548160ff021916908315150217905550610c33565b60008060016101000a81548160ff0219169083151502179055505b5b600060019054906101000a900460ff16610cf7576040518060400160405280601281526020017f566f7465206e6f742066696e697368656421000000000000000000000000000081525060019080519060200190610c9392919061104c565b506009600081548110610ca257fe5b9060005260206000209060020201600101546002819055506009600181548110610cc857fe5b906000526020600020906002020160010154600381905550604051806020016040528060008152509050610ed7565b6000806000806101000a81548160ff021916908315150217905550600080905060008090505b600980549050811015610d82578160098281548110610d3857fe5b9060005260206000209060020201600101541115610d755760098181548110610d5d57fe5b90600052602060002090600202016001015491508092505b8080600101915050610d1d565b506040518060400160405280601181526020017f566f74652069732066696e69736865642100000000000000000000000000000081525060019080519060200190610dce92919061104c565b506009600081548110610ddd57fe5b9060005260206000209060020201600101546002819055506009600181548110610e0357fe5b90600052602060002090600202016001015460038190555060098281548110610e2857fe5b90600052602060002090600202016000018054600181600116156101000203166002900480601f016020809104026020016040519081016040528092919081815260200182805460018160011615610100020316600290048015610ecd5780601f10610ea257610100808354040283529160200191610ecd565b820191906000526020600020905b815481529060010190602001808311610eb057829003601f168201915b5050505050925050505b90565b60035481565b60018054600181600116156101000203166002900480601f016020809104026020016040519081016040528092919081815260200182805460018160011615610100020316600290048015610f765780601f10610f4b57610100808354040283529160200191610f76565b820191906000526020600020905b815481529060010190602001808311610f5957829003601f168201915b505050505081565b60025481565b50805460018160011615610100020316600290046000825580601f10610faa5750610fc9565b601f016020900490600052602060002090810190610fc891906110cc565b5b50565b828054600181600116156101000203166002900490600052602060002090601f016020900481019282601f1061100d57805160ff191683800117855561103b565b8280016001018555821561103b579182015b8281111561103a57825182559160200191906001019061101f565b5b50905061104891906110cc565b5090565b828054600181600116156101000203166002900490600052602060002090601f016020900481019282601f1061108d57805160ff19168380011785556110bb565b828001600101855582156110bb579182015b828111156110ba57825182559160200191906001019061109f565b5b5090506110c891906110cc565b5090565b6110ee91905b808211156110ea5760008160009055506001016110d2565b5090565b9056fea265627a7a723158200cc27ce25753d4dbb74b4911866e511771909afda853458b6aaaf5408d61335964736f6c63430005100032",
  "source": "// SPDX-License-Identifier: GPL-3.0\n\npragma solidity ^0.5.16;\n\ncontract Vote {\n    struct Voter {\n        bool voted;  // if true, that person already voted\n        uint vote;   // index of the voted proposal\n    }\n\n    struct Proposal {\n        string name;   // short name (up to 32 bytes)\n        uint voteCount; // number of accumulated votes\n    }\n    bool public voteExists = false;\n    bool public isFinished = false;\n    string public message = \"\";\n    uint public mYes = 0;\n    uint public mNo = 0;\n    \n    //TODO you should inherit the addresses from sign up\n    address org1 = 0x2C40BA2ff15411D8f94549996d4525b6E40c7036;\n    address org2 = 0xeAb6B637e9566003F5da8d29e0765E55a1C49874;\n    address org3 = 0xeDa41D794c549a0F8A613720A70359937b50e0ca;\n    address org4 = 0xa99bECF4f0fDB2B2466e716b949fDF941C27CC47;\n\n    mapping(address => Voter) public voters;\n    \n    Proposal[] public proposals;\n    \n    uint16 public numVotesLeft = 4;\n    \n    function createVote() public  {   \n        uint len = proposals.length;\n        for(uint k = 0; k < len; k++){\n            proposals.pop();\n        }\n        proposals.push(Proposal({\n                name: \"Yes\",\n                voteCount: 0\n            }));\n        proposals.push(Proposal({\n                name: \"No\",\n                voteCount: 0\n            }));\n        voteExists = true;\n        message = \"Vote created successfully!\";\n        mYes = proposals[0].voteCount;\n        mNo = proposals[1].voteCount;\n        \n        Voter storage sender = voters[org1];\n        sender.voted = false;\n        sender = voters[org2];\n        sender.voted = false;\n        sender = voters[org3];\n        sender.voted = false;\n        sender = voters[org4];\n        sender.voted = false;\n        numVotesLeft = 4;\n    }\n    \n    function postVote(uint proposal) public {\n        Voter storage sender = voters[msg.sender];\n        if(sender.voted){\n            message = \"Already voted.\";\n        } else {\n            sender.voted = true;\n            sender.vote = proposal;\n            \n            numVotesLeft -= 1;\n            proposals[proposal].voteCount += 1;\n            message = \"Voted successfully!\";\n            mYes = proposals[0].voteCount;\n            mNo = proposals[1].voteCount;\n        }\n    }\n\n    /** \n     * @dev Computes the winning proposal taking all previous votes into account.\n     * @return winningProposal_ index of winning proposal in the proposals array\n     * @return winnerName_ the name of winning proposal in the proposals array\n     */\n    function getWinningProposal() public\n            returns (string memory winnerName_)\n    {\n        if(proposals[0].voteCount > proposals[1].voteCount + numVotesLeft){\n            isFinished = true;\n        } else if (proposals[1].voteCount > proposals[0].voteCount + numVotesLeft){\n            isFinished = true;\n        } else {\n            isFinished = false;\n        }\n\n        if(!isFinished){\n            message = \"Vote not finished!\";\n            mYes = proposals[0].voteCount;\n            mNo = proposals[1].voteCount;\n            winnerName_ = \"\";\n        } else {\n            uint winningProposal_;\n            voteExists = false;\n            uint winningVoteCount = 0;\n            for (uint p = 0; p < proposals.length; p++) {\n                if (proposals[p].voteCount > winningVoteCount) {\n                    winningVoteCount = proposals[p].voteCount;\n                    winningProposal_ = p;\n                }\n            }\n            message = \"Vote is finished!\";\n            mYes = proposals[0].voteCount;\n            mNo = proposals[1].voteCount;\n            winnerName_ = proposals[winningProposal_].name;\n        }\n    }\n}\n",
  "sourcePath": "/home/sergios/BlockchainDAO/contracts/Vote.sol",
  "compiler": {
    "name": "solc",
    "version": "0.5.16+commit.9c3226ce.Emscripten.clang"
  },
  "schemaVersion": "3.4.1",
  "updatedAt": "2021-11-09T17:53:05.968Z",
  "networkType": "ethereum",
  "devdoc": {
    "methods": {
      "getWinningProposal()": {
        "details": "Computes the winning proposal taking all previous votes into account.",
        "return": "winningProposal_ index of winning proposal in the proposals arraywinnerName_ the name of winning proposal in the proposals array"
      }
    }
  },
  "userdoc": {
    "methods": {}
  }
}