{
  "contractName": "Vote",
  "abi": [
    {
      "constant": true,
      "inputs": [],
      "name": "isFinished",
      "outputs": [
        {
          "internalType": "bool",
          "name": "",
          "type": "bool"
        }
      ],
      "payable": false,
      "stateMutability": "view",
      "type": "function"
    },
    {
      "constant": true,
      "inputs": [],
      "name": "message",
      "outputs": [
        {
          "internalType": "string",
          "name": "",
          "type": "string"
        }
      ],
      "payable": false,
      "stateMutability": "view",
      "type": "function"
    },
    {
      "constant": true,
      "inputs": [],
      "name": "numVotesLeft",
      "outputs": [
        {
          "internalType": "uint16",
          "name": "",
          "type": "uint16"
        }
      ],
      "payable": false,
      "stateMutability": "view",
      "type": "function"
    },
    {
      "constant": true,
      "inputs": [
        {
          "internalType": "uint256",
          "name": "",
          "type": "uint256"
        }
      ],
      "name": "proposals",
      "outputs": [
        {
          "internalType": "string",
          "name": "name",
          "type": "string"
        },
        {
          "internalType": "uint256",
          "name": "voteCount",
          "type": "uint256"
        }
      ],
      "payable": false,
      "stateMutability": "view",
      "type": "function"
    },
    {
      "constant": true,
      "inputs": [],
      "name": "voteExists",
      "outputs": [
        {
          "internalType": "bool",
          "name": "",
          "type": "bool"
        }
      ],
      "payable": false,
      "stateMutability": "view",
      "type": "function"
    },
    {
      "constant": true,
      "inputs": [
        {
          "internalType": "address",
          "name": "",
          "type": "address"
        }
      ],
      "name": "voters",
      "outputs": [
        {
          "internalType": "bool",
          "name": "voted",
          "type": "bool"
        },
        {
          "internalType": "uint256",
          "name": "vote",
          "type": "uint256"
        }
      ],
      "payable": false,
      "stateMutability": "view",
      "type": "function"
    },
    {
      "constant": false,
      "inputs": [],
      "name": "createVote",
      "outputs": [],
      "payable": false,
      "stateMutability": "nonpayable",
      "type": "function"
    },
    {
      "constant": false,
      "inputs": [
        {
          "internalType": "uint256",
          "name": "proposal",
          "type": "uint256"
        }
      ],
      "name": "postVote",
      "outputs": [],
      "payable": false,
      "stateMutability": "nonpayable",
      "type": "function"
    },
    {
      "constant": false,
      "inputs": [],
      "name": "getWinningProposal",
      "outputs": [
        {
          "internalType": "string",
          "name": "winnerName_",
          "type": "string"
        }
      ],
      "payable": false,
      "stateMutability": "nonpayable",
      "type": "function"
    }
  ],
  "bytecode": "0x608060405260008060006101000a81548160ff02191690831515021790555060008060016101000a81548160ff021916908315150217905550604051806020016040528060008152506001908051906020019061005d92919061008e565b506003600460006101000a81548161ffff021916908361ffff16021790555034801561008857600080fd5b50610133565b828054600181600116156101000203166002900490600052602060002090601f016020900481019282601f106100cf57805160ff19168380011785556100fd565b828001600101855582156100fd579182015b828111156100fc5782518255916020019190600101906100e1565b5b50905061010a919061010e565b5090565b61013091905b8082111561012c576000816000905550600101610114565b5090565b90565b610d77806101426000396000f3fe608060405234801561001057600080fd5b50600436106100935760003560e01c80636a678a8a116100665780636a678a8a146101985780637b352962146101c6578063a3ec138d146101e8578063a51346201461024b578063e21f37ce146102ce57610093565b8063013cf08b146100985780633f771bbe1461014657806349712b3a1461016c578063694ff0f21461018e575b600080fd5b6100c4600480360360208110156100ae57600080fd5b8101908080359060200190929190505050610351565b6040518080602001838152602001828103825284818151815260200191508051906020019080838360005b8381101561010a5780820151818401526020810190506100ef565b50505050905090810190601f1680156101375780820380516001836020036101000a031916815260200191505b50935050505060405180910390f35b61014e61041a565b604051808261ffff1661ffff16815260200191505060405180910390f35b61017461042e565b604051808215151515815260200191505060405180910390f35b610196610440565b005b6101c4600480360360208110156101ae57600080fd5b810190808035906020019092919050505061064f565b005b6101ce6107cf565b604051808215151515815260200191505060405180910390f35b61022a600480360360208110156101fe57600080fd5b81019080803573ffffffffffffffffffffffffffffffffffffffff1690602001909291905050506107e2565b60405180831515151581526020018281526020019250505060405180910390f35b610253610813565b6040518080602001828103825283818151815260200191508051906020019080838360005b83811015610293578082015181840152602081019050610278565b50505050905090810190601f1680156102c05780820380516001836020036101000a031916815260200191505b509250505060405180910390f35b6102d6610b37565b6040518080602001828103825283818151815260200191508051906020019080838360005b838110156103165780820151818401526020810190506102fb565b50505050905090810190601f1680156103435780820380516001836020036101000a031916815260200191505b509250505060405180910390f35b6003818154811061035e57fe5b9060005260206000209060020201600091509050806000018054600181600116156101000203166002900480601f01602080910402602001604051908101604052809291908181526020018280546001816001161561010002031660029004801561040a5780601f106103df5761010080835404028352916020019161040a565b820191906000526020600020905b8154815290600101906020018083116103ed57829003601f168201915b5050505050908060010154905082565b600460009054906101000a900461ffff1681565b6000809054906101000a900460ff1681565b6000600380549050905060008090505b818110156104a157600380548061046357fe5b6001900381819060005260206000209060020201600080820160006104889190610bd5565b6001820160009055505090558080600101915050610450565b50600360405180604001604052806040518060400160405280600381526020017f596573000000000000000000000000000000000000000000000000000000000081525081526020016000815250908060018154018082558091505090600182039060005260206000209060020201600090919290919091506000820151816000019080519060200190610536929190610c1d565b5060208201518160010155505050600360405180604001604052806040518060400160405280600281526020017f4e6f000000000000000000000000000000000000000000000000000000000000815250815260200160008152509080600181540180825580915050906001820390600052602060002090600202016000909192909190915060008201518160000190805190602001906105d8929190610c1d565b506020820151816001015550505060016000806101000a81548160ff0219169083151502179055506040518060400160405280601a81526020017f566f74652063726561746564207375636365737366756c6c79210000000000008152506001908051906020019061064b929190610c9d565b5050565b6000600260003373ffffffffffffffffffffffffffffffffffffffff1673ffffffffffffffffffffffffffffffffffffffff16815260200190815260200160002090508060000160009054906101000a900460ff16156106fa576040518060400160405280600e81526020017f416c726561647920766f7465642e000000000000000000000000000000000000815250600190805190602001906106f4929190610c9d565b506107cb565b60018160000160006101000a81548160ff0219169083151502179055508181600101819055506001600460008282829054906101000a900461ffff160392506101000a81548161ffff021916908361ffff16021790555060016003838154811061076057fe5b9060005260206000209060020201600101600082825401925050819055506040518060400160405280601381526020017f566f746564207375636365737366756c6c792100000000000000000000000000815250600190805190602001906107c9929190610c9d565b505b5050565b600060019054906101000a900460ff1681565b60026020528060005260406000206000915090508060000160009054906101000a900460ff16908060010154905082565b6060600460009054906101000a900461ffff1661ffff16600360018154811061083857fe5b90600052602060002090600202016001015401600360008154811061085957fe5b9060005260206000209060020201600101541115610891576001600060016101000a81548160ff021916908315150217905550610929565b600460009054906101000a900461ffff1661ffff1660036000815481106108b457fe5b9060005260206000209060020201600101540160036001815481106108d557fe5b906000526020600020906002020160010154111561090d576001600060016101000a81548160ff021916908315150217905550610928565b60008060016101000a81548160ff0219169083151502179055505b5b600060019054906101000a900460ff166109a0576040518060400160405280601281526020017f566f7465206e6f742066696e697368656421000000000000000000000000000081525060019080519060200190610988929190610c9d565b50604051806020016040528060008152509050610b34565b6000806000806101000a81548160ff021916908315150217905550600080905060008090505b600380549050811015610a2b5781600382815481106109e157fe5b9060005260206000209060020201600101541115610a1e5760038181548110610a0657fe5b90600052602060002090600202016001015491508092505b80806001019150506109c6565b506040518060400160405280601181526020017f566f74652069732066696e69736865642100000000000000000000000000000081525060019080519060200190610a77929190610c9d565b5060038281548110610a8557fe5b90600052602060002090600202016000018054600181600116156101000203166002900480601f016020809104026020016040519081016040528092919081815260200182805460018160011615610100020316600290048015610b2a5780601f10610aff57610100808354040283529160200191610b2a565b820191906000526020600020905b815481529060010190602001808311610b0d57829003601f168201915b5050505050925050505b90565b60018054600181600116156101000203166002900480601f016020809104026020016040519081016040528092919081815260200182805460018160011615610100020316600290048015610bcd5780601f10610ba257610100808354040283529160200191610bcd565b820191906000526020600020905b815481529060010190602001808311610bb057829003601f168201915b505050505081565b50805460018160011615610100020316600290046000825580601f10610bfb5750610c1a565b601f016020900490600052602060002090810190610c199190610d1d565b5b50565b828054600181600116156101000203166002900490600052602060002090601f016020900481019282601f10610c5e57805160ff1916838001178555610c8c565b82800160010185558215610c8c579182015b82811115610c8b578251825591602001919060010190610c70565b5b509050610c999190610d1d565b5090565b828054600181600116156101000203166002900490600052602060002090601f016020900481019282601f10610cde57805160ff1916838001178555610d0c565b82800160010185558215610d0c579182015b82811115610d0b578251825591602001919060010190610cf0565b5b509050610d199190610d1d565b5090565b610d3f91905b80821115610d3b576000816000905550600101610d23565b5090565b9056fea265627a7a723158207f8fb25133bf557a8936b7e5f023d8e31f00e2f202427911be5883a1d4a2d43964736f6c63430005100032",
  "source": "// SPDX-License-Identifier: GPL-3.0\n\npragma solidity ^0.5.16;\n\ncontract Vote {\n    struct Voter {\n        bool voted;  // if true, that person already voted\n        uint vote;   // index of the voted proposal\n    }\n\n    struct Proposal {\n        string name;   // short name (up to 32 bytes)\n        uint voteCount; // number of accumulated votes\n    }\n    bool public voteExists = false;\n    bool public isFinished = false;\n    string public message = \"\";\n    mapping(address => Voter) public voters;\n\n    Proposal[] public proposals;\n    \n    uint16 public numVotesLeft = 3;\n    \n    function createVote() public  {   \n        uint len = proposals.length;\n        for(uint k = 0; k < len; k++){\n            proposals.pop();\n        }\n        proposals.push(Proposal({\n                name: \"Yes\",\n                voteCount: 0\n            }));\n        proposals.push(Proposal({\n                name: \"No\",\n                voteCount: 0\n            }));\n        voteExists = true;\n        message = \"Vote created successfully!\";\n    }\n    \n    function postVote(uint proposal) public {\n        Voter storage sender = voters[msg.sender];\n        if(sender.voted){\n            message = \"Already voted.\";\n        } else {\n            sender.voted = true;\n            sender.vote = proposal;\n            \n            numVotesLeft -= 1;\n            proposals[proposal].voteCount += 1;\n            message = \"Voted successfully!\";\n        }\n    }\n\n    /** \n     * @dev Computes the winning proposal taking all previous votes into account.\n     * @return winningProposal_ index of winning proposal in the proposals array\n     * @return winnerName_ the name of winning proposal in the proposals array\n     */\n    function getWinningProposal() public\n            returns (string memory winnerName_)\n    {\n        if(proposals[0].voteCount > proposals[1].voteCount + numVotesLeft){\n            isFinished = true;\n        } else if (proposals[1].voteCount > proposals[0].voteCount + numVotesLeft){\n            isFinished = true;\n        } else {\n            isFinished = false;\n        }\n\n        if(!isFinished){\n            message = \"Vote not finished!\";\n            winnerName_ = \"\";\n        } else {\n            uint winningProposal_;\n            voteExists = false;\n            uint winningVoteCount = 0;\n            for (uint p = 0; p < proposals.length; p++) {\n                if (proposals[p].voteCount > winningVoteCount) {\n                    winningVoteCount = proposals[p].voteCount;\n                    winningProposal_ = p;\n                }\n            }\n            message = \"Vote is finished!\";\n            winnerName_ = proposals[winningProposal_].name;\n        }\n    }\n}\n",
  "sourcePath": "/home/sergios/BlockchainDAO/contracts/Vote.sol",
  "compiler": {
    "name": "solc",
    "version": "0.5.16+commit.9c3226ce.Emscripten.clang"
  },
  "schemaVersion": "3.4.1",
  "updatedAt": "2021-09-27T18:51:57.441Z",
  "devdoc": {
    "methods": {
      "getWinningProposal()": {
        "details": "Computes the winning proposal taking all previous votes into account.",
        "return": "winningProposal_ index of winning proposal in the proposals arraywinnerName_ the name of winning proposal in the proposals array"
      }
    }
  },
  "userdoc": {
    "methods": {}
  }
}