{
  "contractName": "Vote",
  "abi": [
    {
      "constant": true,
      "inputs": [
        {
          "internalType": "address",
          "name": "",
          "type": "address"
        }
      ],
      "name": "energyPercentage",
      "outputs": [
        {
          "internalType": "uint256",
          "name": "",
          "type": "uint256"
        }
      ],
      "payable": false,
      "stateMutability": "view",
      "type": "function"
    },
    {
      "constant": true,
      "inputs": [],
      "name": "isFinished",
      "outputs": [
        {
          "internalType": "bool",
          "name": "",
          "type": "bool"
        }
      ],
      "payable": false,
      "stateMutability": "view",
      "type": "function"
    },
    {
      "constant": true,
      "inputs": [],
      "name": "mNo",
      "outputs": [
        {
          "internalType": "uint256",
          "name": "",
          "type": "uint256"
        }
      ],
      "payable": false,
      "stateMutability": "view",
      "type": "function"
    },
    {
      "constant": true,
      "inputs": [],
      "name": "mYes",
      "outputs": [
        {
          "internalType": "uint256",
          "name": "",
          "type": "uint256"
        }
      ],
      "payable": false,
      "stateMutability": "view",
      "type": "function"
    },
    {
      "constant": true,
      "inputs": [],
      "name": "message",
      "outputs": [
        {
          "internalType": "string",
          "name": "",
          "type": "string"
        }
      ],
      "payable": false,
      "stateMutability": "view",
      "type": "function"
    },
    {
      "constant": true,
      "inputs": [],
      "name": "numVotesLeft",
      "outputs": [
        {
          "internalType": "uint16",
          "name": "",
          "type": "uint16"
        }
      ],
      "payable": false,
      "stateMutability": "view",
      "type": "function"
    },
    {
      "constant": true,
      "inputs": [
        {
          "internalType": "uint256",
          "name": "",
          "type": "uint256"
        }
      ],
      "name": "proposals",
      "outputs": [
        {
          "internalType": "string",
          "name": "name",
          "type": "string"
        },
        {
          "internalType": "uint256",
          "name": "voteCount",
          "type": "uint256"
        }
      ],
      "payable": false,
      "stateMutability": "view",
      "type": "function"
    },
    {
      "constant": true,
      "inputs": [],
      "name": "voteExists",
      "outputs": [
        {
          "internalType": "bool",
          "name": "",
          "type": "bool"
        }
      ],
      "payable": false,
      "stateMutability": "view",
      "type": "function"
    },
    {
      "constant": true,
      "inputs": [
        {
          "internalType": "address",
          "name": "",
          "type": "address"
        }
      ],
      "name": "voters",
      "outputs": [
        {
          "internalType": "bool",
          "name": "voted",
          "type": "bool"
        },
        {
          "internalType": "uint256",
          "name": "vote",
          "type": "uint256"
        }
      ],
      "payable": false,
      "stateMutability": "view",
      "type": "function"
    },
    {
      "constant": true,
      "inputs": [],
      "name": "winnerProposalName",
      "outputs": [
        {
          "internalType": "string",
          "name": "",
          "type": "string"
        }
      ],
      "payable": false,
      "stateMutability": "view",
      "type": "function"
    },
    {
      "constant": true,
      "inputs": [],
      "name": "getEnergyPercentage",
      "outputs": [
        {
          "internalType": "uint256",
          "name": "",
          "type": "uint256"
        }
      ],
      "payable": false,
      "stateMutability": "view",
      "type": "function"
    },
    {
      "constant": true,
      "inputs": [],
      "name": "getEnergySum",
      "outputs": [
        {
          "internalType": "uint256",
          "name": "",
          "type": "uint256"
        }
      ],
      "payable": false,
      "stateMutability": "view",
      "type": "function"
    },
    {
      "constant": false,
      "inputs": [
        {
          "internalType": "uint256",
          "name": "sum",
          "type": "uint256"
        }
      ],
      "name": "setEnergySum",
      "outputs": [],
      "payable": false,
      "stateMutability": "nonpayable",
      "type": "function"
    },
    {
      "constant": false,
      "inputs": [],
      "name": "createVote",
      "outputs": [],
      "payable": false,
      "stateMutability": "nonpayable",
      "type": "function"
    },
    {
      "constant": false,
      "inputs": [
        {
          "internalType": "uint256",
          "name": "proposal",
          "type": "uint256"
        }
      ],
      "name": "postVote",
      "outputs": [],
      "payable": false,
      "stateMutability": "nonpayable",
      "type": "function"
    },
    {
      "constant": false,
      "inputs": [],
      "name": "updateVoteState",
      "outputs": [],
      "payable": false,
      "stateMutability": "nonpayable",
      "type": "function"
    }
  ],
  "bytecode": "0x608060405260405180602001604052806000815250600090805190602001906200002b92919062000219565b506000600160006101000a81548160ff02191690831515021790555060006001806101000a81548160ff02191690831515021790555060405180602001604052806000815250600290805190602001906200008892919062000219565b50600060035560006004556004600660006101000a81548161ffff021916908361ffff16021790555073a7e2d1f80b92b75b3fd187490b2b01550043d0b3600660026101000a81548173ffffffffffffffffffffffffffffffffffffffff021916908373ffffffffffffffffffffffffffffffffffffffff16021790555073a02a9a8d092a47dc4e7abf569a9b392d0ce07e43600760006101000a81548173ffffffffffffffffffffffffffffffffffffffff021916908373ffffffffffffffffffffffffffffffffffffffff16021790555073448f178c88c0fc73ea74714b1e0494781548ff4c600860006101000a81548173ffffffffffffffffffffffffffffffffffffffff021916908373ffffffffffffffffffffffffffffffffffffffff160217905550737188d086e0415b0b394a67325fc5c4534262e76a600960006101000a81548173ffffffffffffffffffffffffffffffffffffffff021916908373ffffffffffffffffffffffffffffffffffffffff1602179055503480156200021257600080fd5b50620002c8565b828054600181600116156101000203166002900490600052602060002090601f016020900481019282601f106200025c57805160ff19168380011785556200028d565b828001600101855582156200028d579182015b828111156200028c5782518255916020019190600101906200026f565b5b5090506200029c9190620002a0565b5090565b620002c591905b80821115620002c1576000816000905550600101620002a7565b5090565b90565b61201280620002d86000396000f3fe608060405234801561001057600080fd5b50600436106101005760003560e01c80636a678a8a11610097578063a3ec138d11610066578063a3ec138d146103a4578063c6f6633414610407578063e21f37ce14610425578063fee54ef5146104a857610100565b80636a678a8a146102b35780637b352962146102e15780637f38ed7414610303578063a0f2c2911461032157610100565b80634ba59988116100d35780634ba59988146102295780634bd82b2f14610247578063586cd54614610251578063694ff0f2146102a957610100565b8063013cf08b146101055780633f771bbe146101b3578063441eea1e146101d957806349712b3a14610207575b600080fd5b6101316004803603602081101561011b57600080fd5b81019080803590602001909291905050506104c6565b6040518080602001838152602001828103825284818151815260200191508051906020019080838360005b8381101561017757808201518184015260208101905061015c565b50505050905090810190601f1680156101a45780820380516001836020036101000a031916815260200191505b50935050505060405180910390f35b6101bb61058f565b604051808261ffff1661ffff16815260200191505060405180910390f35b610205600480360360208110156101ef57600080fd5b81019080803590602001909291905050506105a3565b005b61020f6105ea565b604051808215151515815260200191505060405180910390f35b6102316105fd565b6040518082815260200191505060405180910390f35b61024f610649565b005b6102936004803603602081101561026757600080fd5b81019080803573ffffffffffffffffffffffffffffffffffffffff169060200190929190505050611166565b6040518082815260200191505060405180910390f35b6102b161117e565b005b6102df600480360360208110156102c957600080fd5b81019080803590602001909291905050506117ce565b005b6102e9611b48565b604051808215151515815260200191505060405180910390f35b61030b611b5a565b6040518082815260200191505060405180910390f35b610329611ba6565b6040518080602001828103825283818151815260200191508051906020019080838360005b8381101561036957808201518184015260208101905061034e565b50505050905090810190601f1680156103965780820380516001836020036101000a031916815260200191505b509250505060405180910390f35b6103e6600480360360208110156103ba57600080fd5b81019080803573ffffffffffffffffffffffffffffffffffffffff169060200190929190505050611c44565b60405180831515151581526020018281526020019250505060405180910390f35b61040f611c75565b6040518082815260200191505060405180910390f35b61042d611c7b565b6040518080602001828103825283818151815260200191508051906020019080838360005b8381101561046d578082015181840152602081019050610452565b50505050905090810190601f16801561049a5780820380516001836020036101000a031916815260200191505b509250505060405180910390f35b6104b0611d19565b6040518082815260200191505060405180910390f35b600581815481106104d357fe5b9060005260206000209060020201600091509050806000018054600181600116156101000203166002900480601f01602080910402602001604051908101604052809291908181526020018280546001816001161561010002031660029004801561057f5780601f106105545761010080835404028352916020019161057f565b820191906000526020600020905b81548152906001019060200180831161056257829003601f168201915b5050505050908060010154905082565b600660009054906101000a900461ffff1681565b80600b60003373ffffffffffffffffffffffffffffffffffffffff1673ffffffffffffffffffffffffffffffffffffffff1681526020019081526020016000208190555050565b600160009054906101000a900460ff1681565b600080600b60003373ffffffffffffffffffffffffffffffffffffffff1673ffffffffffffffffffffffffffffffffffffffff1681526020019081526020016000205490508091505090565b600660029054906101000a900473ffffffffffffffffffffffffffffffffffffffff1673ffffffffffffffffffffffffffffffffffffffff163373ffffffffffffffffffffffffffffffffffffffff1614806106f25750600760009054906101000a900473ffffffffffffffffffffffffffffffffffffffff1673ffffffffffffffffffffffffffffffffffffffff163373ffffffffffffffffffffffffffffffffffffffff16145b8061074a5750600860009054906101000a900473ffffffffffffffffffffffffffffffffffffffff1673ffffffffffffffffffffffffffffffffffffffff163373ffffffffffffffffffffffffffffffffffffffff16145b806107a25750600960009054906101000a900473ffffffffffffffffffffffffffffffffffffffff1673ffffffffffffffffffffffffffffffffffffffff163373ffffffffffffffffffffffffffffffffffffffff16145b6107f7576040517f08c379a0000000000000000000000000000000000000000000000000000000008152600401808060200182810382526041815260200180611f576041913960600191505060405180910390fd5b600660009054906101000a900461ffff1661ffff16600560018154811061081a57fe5b90600052602060002090600202016001015401600560008154811061083b57fe5b90600052602060002090600202016001015411156108725760018060016101000a81548160ff021916908315150217905550610909565b600660009054906101000a900461ffff1661ffff16600560008154811061089557fe5b9060005260206000209060020201600101540160056001815481106108b657fe5b90600052602060002090600202016001015411156108ed5760018060016101000a81548160ff021916908315150217905550610908565b60006001806101000a81548160ff0219169083151502179055505b5b6001809054906101000a900460ff166109df576040518060400160405280601281526020017f566f7465206e6f742066696e697368656421000000000000000000000000000081525060029080519060200190610967929190611d62565b50600560008154811061097657fe5b906000526020600020906002020160010154600381905550600560018154811061099c57fe5b90600052602060002090600202016001015460048190555060405180602001604052806000815250600090805190602001906109d9929190611d62565b50611164565b604051806020016040528060008152508051906020012060006040518082805460018160011615610100020316600290048015610a535780601f10610a31576101008083540402835291820191610a53565b820191906000526020600020905b815481529060010190602001808311610a3f575b50509150506040518091039020141561116357600080600160006101000a81548160ff021916908315150217905550600080905060008090505b600580549050811015610af2578160058281548110610aa857fe5b9060005260206000209060020201600101541115610ae55760058181548110610acd57fe5b90600052602060002090600202016001015491508092505b8080600101915050610a8d565b506005600081548110610b0157fe5b9060005260206000209060020201600101546003819055506005600181548110610b2757fe5b90600052602060002090600202016001015460048190555060058281548110610b4c57fe5b906000526020600020906002020160000160009080546001816001161561010002031660029004610b7e929190611de2565b506040518060400160405280600381526020017f59657300000000000000000000000000000000000000000000000000000000008152508051906020012060006040518082805460018160011615610100020316600290048015610c195780601f10610bf7576101008083540402835291820191610c19565b820191906000526020600020905b815481529060010190602001808311610c05575b505091505060405180910390201415611130576000600b6000600960009054906101000a900473ffffffffffffffffffffffffffffffffffffffff1673ffffffffffffffffffffffffffffffffffffffff1673ffffffffffffffffffffffffffffffffffffffff16815260200190815260200160002054600b6000600860009054906101000a900473ffffffffffffffffffffffffffffffffffffffff1673ffffffffffffffffffffffffffffffffffffffff1673ffffffffffffffffffffffffffffffffffffffff16815260200190815260200160002054600b6000600760009054906101000a900473ffffffffffffffffffffffffffffffffffffffff1673ffffffffffffffffffffffffffffffffffffffff1673ffffffffffffffffffffffffffffffffffffffff16815260200190815260200160002054600b6000600660029054906101000a900473ffffffffffffffffffffffffffffffffffffffff1673ffffffffffffffffffffffffffffffffffffffff1673ffffffffffffffffffffffffffffffffffffffff168152602001908152602001600020540101019050610e26600b6000600660029054906101000a900473ffffffffffffffffffffffffffffffffffffffff1673ffffffffffffffffffffffffffffffffffffffff1673ffffffffffffffffffffffffffffffffffffffff1681526020019081526020016000205482611d1f565b600a6000600660029054906101000a900473ffffffffffffffffffffffffffffffffffffffff1673ffffffffffffffffffffffffffffffffffffffff1673ffffffffffffffffffffffffffffffffffffffff16815260200190815260200160002081905550610ef6600b6000600760009054906101000a900473ffffffffffffffffffffffffffffffffffffffff1673ffffffffffffffffffffffffffffffffffffffff1673ffffffffffffffffffffffffffffffffffffffff1681526020019081526020016000205482611d1f565b600a6000600760009054906101000a900473ffffffffffffffffffffffffffffffffffffffff1673ffffffffffffffffffffffffffffffffffffffff1673ffffffffffffffffffffffffffffffffffffffff16815260200190815260200160002081905550610fc6600b6000600860009054906101000a900473ffffffffffffffffffffffffffffffffffffffff1673ffffffffffffffffffffffffffffffffffffffff1673ffffffffffffffffffffffffffffffffffffffff1681526020019081526020016000205482611d1f565b600a6000600860009054906101000a900473ffffffffffffffffffffffffffffffffffffffff1673ffffffffffffffffffffffffffffffffffffffff1673ffffffffffffffffffffffffffffffffffffffff16815260200190815260200160002081905550611096600b6000600960009054906101000a900473ffffffffffffffffffffffffffffffffffffffff1673ffffffffffffffffffffffffffffffffffffffff1673ffffffffffffffffffffffffffffffffffffffff1681526020019081526020016000205482611d1f565b600a6000600960009054906101000a900473ffffffffffffffffffffffffffffffffffffffff1673ffffffffffffffffffffffffffffffffffffffff1673ffffffffffffffffffffffffffffffffffffffff16815260200190815260200160002081905550604051806060016040528060248152602001611fba6024913960029080519060200190611129929190611d62565b5050611160565b604051806060016040528060228152602001611f98602291396002908051906020019061115e929190611d62565b505b50505b5b565b600a6020528060005260406000206000915090505481565b600660029054906101000a900473ffffffffffffffffffffffffffffffffffffffff1673ffffffffffffffffffffffffffffffffffffffff163373ffffffffffffffffffffffffffffffffffffffff1614806112275750600760009054906101000a900473ffffffffffffffffffffffffffffffffffffffff1673ffffffffffffffffffffffffffffffffffffffff163373ffffffffffffffffffffffffffffffffffffffff16145b8061127f5750600860009054906101000a900473ffffffffffffffffffffffffffffffffffffffff1673ffffffffffffffffffffffffffffffffffffffff163373ffffffffffffffffffffffffffffffffffffffff16145b806112d75750600960009054906101000a900473ffffffffffffffffffffffffffffffffffffffff1673ffffffffffffffffffffffffffffffffffffffff163373ffffffffffffffffffffffffffffffffffffffff16145b61132c576040517f08c379a0000000000000000000000000000000000000000000000000000000008152600401808060200182810382526041815260200180611f576041913960600191505060405180910390fd5b6000600580549050905060008090505b8181101561138d57600580548061134f57fe5b6001900381819060005260206000209060020201600080820160006113749190611e69565b600182016000905550509055808060010191505061133c565b50600560405180604001604052806040518060400160405280600381526020017f596573000000000000000000000000000000000000000000000000000000000081525081526020016000815250908060018154018082558091505090600182039060005260206000209060020201600090919290919091506000820151816000019080519060200190611422929190611eb1565b5060208201518160010155505050600560405180604001604052806040518060400160405280600281526020017f4e6f000000000000000000000000000000000000000000000000000000000000815250815260200160008152509080600181540180825580915050906001820390600052602060002090600202016000909192909190915060008201518160000190805190602001906114c4929190611eb1565b506020820151816001015550505060018060006101000a81548160ff0219169083151502179055506040518060200160405280600081525060009080519060200190611511929190611d62565b506040518060400160405280601a81526020017f566f74652063726561746564207375636365737366756c6c79210000000000008152506002908051906020019061155d929190611d62565b50600560008154811061156c57fe5b906000526020600020906002020160010154600381905550600560018154811061159257fe5b9060005260206000209060020201600101546004819055506000600c6000600660029054906101000a900473ffffffffffffffffffffffffffffffffffffffff1673ffffffffffffffffffffffffffffffffffffffff1673ffffffffffffffffffffffffffffffffffffffff168152602001908152602001600020905060008160000160006101000a81548160ff021916908315150217905550600c6000600760009054906101000a900473ffffffffffffffffffffffffffffffffffffffff1673ffffffffffffffffffffffffffffffffffffffff1673ffffffffffffffffffffffffffffffffffffffff168152602001908152602001600020905060008160000160006101000a81548160ff021916908315150217905550600c6000600860009054906101000a900473ffffffffffffffffffffffffffffffffffffffff1673ffffffffffffffffffffffffffffffffffffffff1673ffffffffffffffffffffffffffffffffffffffff168152602001908152602001600020905060008160000160006101000a81548160ff021916908315150217905550600c6000600960009054906101000a900473ffffffffffffffffffffffffffffffffffffffff1673ffffffffffffffffffffffffffffffffffffffff1673ffffffffffffffffffffffffffffffffffffffff168152602001908152602001600020905060008160000160006101000a81548160ff0219169083151502179055506004600660006101000a81548161ffff021916908361ffff1602179055505050565b600660029054906101000a900473ffffffffffffffffffffffffffffffffffffffff1673ffffffffffffffffffffffffffffffffffffffff163373ffffffffffffffffffffffffffffffffffffffff1614806118775750600760009054906101000a900473ffffffffffffffffffffffffffffffffffffffff1673ffffffffffffffffffffffffffffffffffffffff163373ffffffffffffffffffffffffffffffffffffffff16145b806118cf5750600860009054906101000a900473ffffffffffffffffffffffffffffffffffffffff1673ffffffffffffffffffffffffffffffffffffffff163373ffffffffffffffffffffffffffffffffffffffff16145b806119275750600960009054906101000a900473ffffffffffffffffffffffffffffffffffffffff1673ffffffffffffffffffffffffffffffffffffffff163373ffffffffffffffffffffffffffffffffffffffff16145b61197c576040517f08c379a0000000000000000000000000000000000000000000000000000000008152600401808060200182810382526041815260200180611f576041913960600191505060405180910390fd5b6000600c60003373ffffffffffffffffffffffffffffffffffffffff1673ffffffffffffffffffffffffffffffffffffffff16815260200190815260200160002090508060000160009054906101000a900460ff1615611a27576040518060400160405280600e81526020017f416c726561647920766f7465642e00000000000000000000000000000000000081525060029080519060200190611a21929190611d62565b50611b44565b60018160000160006101000a81548160ff0219169083151502179055508181600101819055506001600660008282829054906101000a900461ffff160392506101000a81548161ffff021916908361ffff160217905550600160058381548110611a8d57fe5b9060005260206000209060020201600101600082825401925050819055506040518060400160405280601381526020017f566f746564207375636365737366756c6c79210000000000000000000000000081525060029080519060200190611af6929190611d62565b506005600081548110611b0557fe5b9060005260206000209060020201600101546003819055506005600181548110611b2b57fe5b9060005260206000209060020201600101546004819055505b5050565b6001809054906101000a900460ff1681565b600080600a60003373ffffffffffffffffffffffffffffffffffffffff1673ffffffffffffffffffffffffffffffffffffffff1681526020019081526020016000205490508091505090565b60008054600181600116156101000203166002900480601f016020809104026020016040519081016040528092919081815260200182805460018160011615610100020316600290048015611c3c5780601f10611c1157610100808354040283529160200191611c3c565b820191906000526020600020905b815481529060010190602001808311611c1f57829003601f168201915b505050505081565b600c6020528060005260406000206000915090508060000160009054906101000a900460ff16908060010154905082565b60045481565b60028054600181600116156101000203166002900480601f016020809104026020016040519081016040528092919081815260200182805460018160011615610100020316600290048015611d115780601f10611ce657610100808354040283529160200191611d11565b820191906000526020600020905b815481529060010190602001808311611cf457829003601f168201915b505050505081565b60035481565b600080600a83856103e80281611d3157fe5b0481611d3957fe5b069050828460640281611d4857fe5b0491506005811115611d5b576001820191505b5092915050565b828054600181600116156101000203166002900490600052602060002090601f016020900481019282601f10611da357805160ff1916838001178555611dd1565b82800160010185558215611dd1579182015b82811115611dd0578251825591602001919060010190611db5565b5b509050611dde9190611f31565b5090565b828054600181600116156101000203166002900490600052602060002090601f016020900481019282601f10611e1b5780548555611e58565b82800160010185558215611e5857600052602060002091601f016020900482015b82811115611e57578254825591600101919060010190611e3c565b5b509050611e659190611f31565b5090565b50805460018160011615610100020316600290046000825580601f10611e8f5750611eae565b601f016020900490600052602060002090810190611ead9190611f31565b5b50565b828054600181600116156101000203166002900490600052602060002090601f016020900481019282601f10611ef257805160ff1916838001178555611f20565b82800160010185558215611f20579182015b82811115611f1f578251825591602001919060010190611f04565b5b509050611f2d9190611f31565b5090565b611f5391905b80821115611f4f576000816000905550600101611f37565b5090565b9056fe546869732066756e6374696f6e206973207265737472696374656420746f2074686520616464726573736573206f6620746865206f7267616e697a6174696f6e7354686520766f746520697320646f6e652e2054686520726573756c74206973204e6f54686520766f746520697320646f6e652e2054686520726573756c74206973205965732ea265627a7a723158209e3d4cf913a2189ae553f564030158dafe548d83955f8f0428436195e2f6772064736f6c63430005100032",
  "source": "// SPDX-License-Identifier: GPL-3.0\n\npragma solidity ^0.5.16;\n\ncontract Vote {\n    // my structs\n    struct Voter {\n        bool voted;  // if true, that person already voted\n        uint vote;   // index of the voted proposal\n    }\n\n    struct Proposal {\n        string name;   // short name (up to 32 bytes)\n        uint voteCount; // number of accumulated votes\n    }\n\n    // my variables\n    string public winnerProposalName = \"\";\n    bool public voteExists = false;\n    bool public isFinished = false;\n    string public message = \"\";\n    uint public mYes = 0;\n    uint public mNo = 0;\n    Proposal[] public proposals;\n    uint16 public numVotesLeft = 4;\n    \n    //TODO you should inherit the addresses from sign up\n    address org1 = 0xa7e2d1F80B92b75B3fd187490b2b01550043D0b3;\n    address org2 = 0xa02A9A8D092a47dc4E7ABf569a9b392D0Ce07e43;\n    address org3 = 0x448F178C88C0fC73eA74714b1e0494781548ff4C;\n    address org4 = 0x7188D086E0415B0b394a67325Fc5c4534262e76a;\n    \n    // my mappings\n    mapping(address => uint) public energyPercentage;\n    mapping(address => uint) private energySum;\n    mapping(address => Voter) public voters;\n    \n    // my modifiers\n    modifier isOrg {\n        require(msg.sender == org1 || msg.sender == org2 || msg.sender == org3 || msg.sender == org4, \"This function is restricted to the addresses of the organizations\");\n        _;\n    }\n\n    // and finally: my functions()\n    function getEnergyPercentage() public view returns (uint) {\n        uint per = energyPercentage[msg.sender];\n        return per;\n    }\n\n    function getEnergySum() public view returns (uint) {\n        uint sum = energySum[msg.sender];\n        return sum;\n    }\n\n    function setEnergySum(uint sum) public {\n        energySum[msg.sender] = sum;\n    }\n    \n    function createVote() public isOrg {   \n        uint len = proposals.length;\n        for(uint k = 0; k < len; k++){\n            proposals.pop();\n        }\n        proposals.push(Proposal({\n                name: \"Yes\",\n                voteCount: 0\n            }));\n        proposals.push(Proposal({\n                name: \"No\",\n                voteCount: 0\n            }));\n        voteExists = true;\n        winnerProposalName = \"\";\n        message = \"Vote created successfully!\";\n        mYes = proposals[0].voteCount;\n        mNo = proposals[1].voteCount;\n        \n        Voter storage sender = voters[org1];\n        sender.voted = false;\n        sender = voters[org2];\n        sender.voted = false;\n        sender = voters[org3];\n        sender.voted = false;\n        sender = voters[org4];\n        sender.voted = false;\n        numVotesLeft = 4;\n    }\n      \n    function postVote(uint proposal) public isOrg {\n        Voter storage sender = voters[msg.sender];\n        if(sender.voted){\n            message = \"Already voted.\";\n        } else {\n            sender.voted = true;\n            sender.vote = proposal;\n            \n            numVotesLeft -= 1;\n            proposals[proposal].voteCount += 1;\n            message = \"Voted successfully!\";\n            mYes = proposals[0].voteCount;\n            mNo = proposals[1].voteCount;\n        }\n    }\n\n    function updateVoteState() public isOrg {\n        if(proposals[0].voteCount > proposals[1].voteCount + numVotesLeft){\n            isFinished = true;\n        } else if (proposals[1].voteCount > proposals[0].voteCount + numVotesLeft){\n            isFinished = true;\n        } else {\n            isFinished = false;\n        }\n\n        if(!isFinished){\n            message = \"Vote not finished!\";\n            mYes = proposals[0].voteCount;\n            mNo = proposals[1].voteCount;\n            winnerProposalName = \"\";\n        } else if ( keccak256(bytes(winnerProposalName)) == keccak256(bytes(\"\")) ){ //winnerProposalName == \"\"\n            uint winningProposal_;\n            voteExists = false;\n            uint winningVoteCount = 0;\n            for (uint p = 0; p < proposals.length; p++) {\n                if (proposals[p].voteCount > winningVoteCount) {\n                    winningVoteCount = proposals[p].voteCount;\n                    winningProposal_ = p;\n                }\n            }\n            mYes = proposals[0].voteCount;\n            mNo = proposals[1].voteCount;\n            winnerProposalName = proposals[winningProposal_].name;\n\n            if ( keccak256(bytes(winnerProposalName)) == keccak256(bytes(\"Yes\")) ){ //winnerProposalName == \"Yes\"\n                uint energySumAll = energySum[org1] + energySum[org2] + energySum[org3] + energySum[org4];\n                energyPercentage[org1] = calculatePercentage(energySum[org1], energySumAll);\n                energyPercentage[org2] = calculatePercentage(energySum[org2], energySumAll);\n                energyPercentage[org3] = calculatePercentage(energySum[org3], energySumAll);\n                energyPercentage[org4] = calculatePercentage(energySum[org4], energySumAll);\n                message = \"The vote is done. The result is Yes.\";\n            } else {\n                message = \"The vote is done. The result is No\";\n            }\n        }\n    }\n\n    function calculatePercentage( uint sum, uint sumAll ) private returns (uint result){\n        uint temp = ( ( 1000 * sum ) / sumAll ) % 10;\n        result = ( 100 * sum ) / sumAll;\n        if ( temp > 5 ) {\n            result += 1;\n        } \n    }\n}\n",
  "sourcePath": "/home/sergios/BlockchainDAO/contracts/Vote.sol",
  "compiler": {
    "name": "solc",
    "version": "0.5.16+commit.9c3226ce.Emscripten.clang"
  },
  "schemaVersion": "3.4.1",
  "updatedAt": "2021-11-24T19:52:13.691Z",
  "networkType": "ethereum",
  "devdoc": {
    "methods": {}
  },
  "userdoc": {
    "methods": {}
  }
}