{
  "contractName": "Vote",
  "abi": [
    {
      "constant": true,
      "inputs": [],
      "name": "isFinished",
      "outputs": [
        {
          "internalType": "bool",
          "name": "",
          "type": "bool"
        }
      ],
      "payable": false,
      "stateMutability": "view",
      "type": "function"
    },
    {
      "constant": true,
      "inputs": [],
      "name": "message",
      "outputs": [
        {
          "internalType": "string",
          "name": "",
          "type": "string"
        }
      ],
      "payable": false,
      "stateMutability": "view",
      "type": "function"
    },
    {
      "constant": true,
      "inputs": [],
      "name": "numVotesLeft",
      "outputs": [
        {
          "internalType": "uint16",
          "name": "",
          "type": "uint16"
        }
      ],
      "payable": false,
      "stateMutability": "view",
      "type": "function"
    },
    {
      "constant": true,
      "inputs": [
        {
          "internalType": "uint256",
          "name": "",
          "type": "uint256"
        }
      ],
      "name": "proposals",
      "outputs": [
        {
          "internalType": "string",
          "name": "name",
          "type": "string"
        },
        {
          "internalType": "uint256",
          "name": "voteCount",
          "type": "uint256"
        }
      ],
      "payable": false,
      "stateMutability": "view",
      "type": "function"
    },
    {
      "constant": true,
      "inputs": [],
      "name": "voteExists",
      "outputs": [
        {
          "internalType": "bool",
          "name": "",
          "type": "bool"
        }
      ],
      "payable": false,
      "stateMutability": "view",
      "type": "function"
    },
    {
      "constant": true,
      "inputs": [
        {
          "internalType": "address",
          "name": "",
          "type": "address"
        }
      ],
      "name": "voters",
      "outputs": [
        {
          "internalType": "bool",
          "name": "voted",
          "type": "bool"
        },
        {
          "internalType": "uint256",
          "name": "vote",
          "type": "uint256"
        }
      ],
      "payable": false,
      "stateMutability": "view",
      "type": "function"
    },
    {
      "constant": false,
      "inputs": [],
      "name": "createVote",
      "outputs": [],
      "payable": false,
      "stateMutability": "nonpayable",
      "type": "function"
    },
    {
      "constant": false,
      "inputs": [
        {
          "internalType": "uint256",
          "name": "proposal",
          "type": "uint256"
        }
      ],
      "name": "postVote",
      "outputs": [],
      "payable": false,
      "stateMutability": "nonpayable",
      "type": "function"
    },
    {
      "constant": false,
      "inputs": [],
      "name": "getWinningProposal",
      "outputs": [
        {
          "internalType": "string",
          "name": "winnerName_",
          "type": "string"
        }
      ],
      "payable": false,
      "stateMutability": "nonpayable",
      "type": "function"
    }
  ],
  "bytecode": "0x608060405260008060006101000a81548160ff02191690831515021790555060008060016101000a81548160ff021916908315150217905550604051806020016040528060008152506001908051906020019061005d92919061008e565b506003600460006101000a81548161ffff021916908361ffff16021790555034801561008857600080fd5b50610133565b828054600181600116156101000203166002900490600052602060002090601f016020900481019282601f106100cf57805160ff19168380011785556100fd565b828001600101855582156100fd579182015b828111156100fc5782518255916020019190600101906100e1565b5b50905061010a919061010e565b5090565b61013091905b8082111561012c576000816000905550600101610114565b5090565b90565b610c75806101426000396000f3fe608060405234801561001057600080fd5b50600436106100935760003560e01c80636a678a8a116100665780636a678a8a146101985780637b352962146101c6578063a3ec138d146101e8578063a51346201461024b578063e21f37ce146102ce57610093565b8063013cf08b146100985780633f771bbe1461014657806349712b3a1461016c578063694ff0f21461018e575b600080fd5b6100c4600480360360208110156100ae57600080fd5b8101908080359060200190929190505050610351565b6040518080602001838152602001828103825284818151815260200191508051906020019080838360005b8381101561010a5780820151818401526020810190506100ef565b50505050905090810190601f1680156101375780820380516001836020036101000a031916815260200191505b50935050505060405180910390f35b61014e61041a565b604051808261ffff1661ffff16815260200191505060405180910390f35b61017461042e565b604051808215151515815260200191505060405180910390f35b610196610440565b005b6101c4600480360360208110156101ae57600080fd5b81019080803590602001909291905050506105a0565b005b6101ce610754565b604051808215151515815260200191505060405180910390f35b61022a600480360360208110156101fe57600080fd5b81019080803573ffffffffffffffffffffffffffffffffffffffff169060200190929190505050610767565b60405180831515151581526020018281526020019250505060405180910390f35b610253610798565b6040518080602001828103825283818151815260200191508051906020019080838360005b83811015610293578082015181840152602081019050610278565b50505050905090810190601f1680156102c05780820380516001836020036101000a031916815260200191505b509250505060405180910390f35b6102d6610a7d565b6040518080602001828103825283818151815260200191508051906020019080838360005b838110156103165780820151818401526020810190506102fb565b50505050905090810190601f1680156103435780820380516001836020036101000a031916815260200191505b509250505060405180910390f35b6003818154811061035e57fe5b9060005260206000209060020201600091509050806000018054600181600116156101000203166002900480601f01602080910402602001604051908101604052809291908181526020018280546001816001161561010002031660029004801561040a5780601f106103df5761010080835404028352916020019161040a565b820191906000526020600020905b8154815290600101906020018083116103ed57829003601f168201915b5050505050908060010154905082565b600460009054906101000a900461ffff1681565b6000809054906101000a900460ff1681565b60016000806101000a81548160ff021916908315150217905550600360405180604001604052806040518060400160405280600381526020017f5965730000000000000000000000000000000000000000000000000000000000815250815260200160008152509080600181540180825580915050906001820390600052602060002090600202016000909192909190915060008201518160000190805190602001906104ee929190610b1b565b5060208201518160010155505050600360405180604001604052806040518060400160405280600281526020017f4e6f00000000000000000000000000000000000000000000000000000000000081525081526020016000815250908060018154018082558091505090600182039060005260206000209060020201600090919290919091506000820151816000019080519060200190610590929190610b1b565b5060208201518160010155505050565b6000600260003373ffffffffffffffffffffffffffffffffffffffff1673ffffffffffffffffffffffffffffffffffffffff16815260200190815260200160002090508060000160009054906101000a900460ff1615610647576040518060400160405280600e81526020017f416c726561647920766f7465642e00000000000000000000000000000000000081525060019080519060200190610645929190610b9b565b505b8060000160009054906101000a900460ff16156106cc576040517f08c379a000000000000000000000000000000000000000000000000000000000815260040180806020018281038252600e8152602001807f416c726561647920766f7465642e00000000000000000000000000000000000081525060200191505060405180910390fd5b60018160000160006101000a81548160ff0219169083151502179055508181600101819055506001600460008282829054906101000a900461ffff160392506101000a81548161ffff021916908361ffff16021790555060016003838154811061073257fe5b9060005260206000209060020201600101600082825401925050819055505050565b600060019054906101000a900460ff1681565b60026020528060005260406000206000915090508060000160009054906101000a900460ff16908060010154905082565b6060600460009054906101000a900461ffff1661ffff1660036001815481106107bd57fe5b9060005260206000209060020201600101540160036000815481106107de57fe5b9060005260206000209060020201600101541115610816576001600060016101000a81548160ff0219169083151502179055506108ae565b600460009054906101000a900461ffff1661ffff16600360008154811061083957fe5b90600052602060002090600202016001015401600360018154811061085a57fe5b9060005260206000209060020201600101541115610892576001600060016101000a81548160ff0219169083151502179055506108ad565b60008060016101000a81548160ff0219169083151502179055505b5b600060019054906101000a900460ff16610930576040517f08c379a00000000000000000000000000000000000000000000000000000000081526004018080602001828103825260128152602001807f566f7465206e6f742066696e697368656421000000000000000000000000000081525060200191505060405180910390fd5b6000806000806101000a81548160ff021916908315150217905550600080905060008090505b6003805490508110156109bb57816003828154811061097157fe5b90600052602060002090600202016001015411156109ae576003818154811061099657fe5b90600052602060002090600202016001015491508092505b8080600101915050610956565b50600382815481106109c957fe5b90600052602060002090600202016000018054600181600116156101000203166002900480601f016020809104026020016040519081016040528092919081815260200182805460018160011615610100020316600290048015610a6e5780601f10610a4357610100808354040283529160200191610a6e565b820191906000526020600020905b815481529060010190602001808311610a5157829003601f168201915b50505050509250829250505090565b60018054600181600116156101000203166002900480601f016020809104026020016040519081016040528092919081815260200182805460018160011615610100020316600290048015610b135780601f10610ae857610100808354040283529160200191610b13565b820191906000526020600020905b815481529060010190602001808311610af657829003601f168201915b505050505081565b828054600181600116156101000203166002900490600052602060002090601f016020900481019282601f10610b5c57805160ff1916838001178555610b8a565b82800160010185558215610b8a579182015b82811115610b89578251825591602001919060010190610b6e565b5b509050610b979190610c1b565b5090565b828054600181600116156101000203166002900490600052602060002090601f016020900481019282601f10610bdc57805160ff1916838001178555610c0a565b82800160010185558215610c0a579182015b82811115610c09578251825591602001919060010190610bee565b5b509050610c179190610c1b565b5090565b610c3d91905b80821115610c39576000816000905550600101610c21565b5090565b9056fea265627a7a72315820f750c44b4dc33af8241cbb4c5a954a37706ef964126c8869cd634c1a0e1cef9264736f6c63430005100032",
  "source": "// SPDX-License-Identifier: GPL-3.0\n\npragma solidity ^0.5.16;\n\ncontract Vote {\n    struct Voter {\n        bool voted;  // if true, that person already voted\n        uint vote;   // index of the voted proposal\n    }\n\n    struct Proposal {\n        string name;   // short name (up to 32 bytes)\n        uint voteCount; // number of accumulated votes\n    }\n    bool public voteExists = false;\n    bool public isFinished = false;\n    string public message = \"\";\n    mapping(address => Voter) public voters;\n\n    Proposal[] public proposals;\n    \n    uint16 public numVotesLeft = 3;\n    /*TODO\n    *if(isFinished == true)\n    *μηδενισε τα voteCount\n    **/\n    function createVote() public  {   \n        voteExists = true;\n        proposals.push(Proposal({\n                name: \"Yes\",\n                voteCount: 0\n            }));\n        proposals.push(Proposal({\n                name: \"No\",\n                voteCount: 0\n            }));\n    }\n    \n    function postVote(uint proposal) public {\n        Voter storage sender = voters[msg.sender];\n        if(sender.voted){\n            message = \"Already voted.\";\n        }\n        require(!sender.voted, \"Already voted.\");\n        sender.voted = true;\n        sender.vote = proposal;\n        \n        numVotesLeft -= 1;\n        proposals[proposal].voteCount += 1;\n    }\n\n    /** \n     * @dev Computes the winning proposal taking all previous votes into account.\n     * @return winningProposal_ index of winning proposal in the proposals array\n     * @return winnerName_ the name of winning proposal in the proposals array\n     */\n    function getWinningProposal() public\n            returns (string memory winnerName_)\n    {\n        if(proposals[0].voteCount > proposals[1].voteCount + numVotesLeft){\n            isFinished = true;\n        } else if (proposals[1].voteCount > proposals[0].voteCount + numVotesLeft){\n            isFinished = true;\n        } else {\n            isFinished = false;\n        }\n        require(isFinished, \"Vote not finished!\");\n\n        uint winningProposal_;\n        voteExists = false;\n        uint winningVoteCount = 0;\n        for (uint p = 0; p < proposals.length; p++) {\n            if (proposals[p].voteCount > winningVoteCount) {\n                winningVoteCount = proposals[p].voteCount;\n                winningProposal_ = p;\n            }\n        }\n        \n        winnerName_ = proposals[winningProposal_].name;\n        return (winnerName_);\n    }\n}\n",
  "sourcePath": "/home/sergios/BlockchainDAO/contracts/Vote.sol",
  "compiler": {
    "name": "solc",
    "version": "0.5.16+commit.9c3226ce.Emscripten.clang"
  },
  "schemaVersion": "3.4.1",
  "updatedAt": "2021-09-22T18:06:19.502Z",
  "networkType": "ethereum",
  "devdoc": {
    "methods": {
      "getWinningProposal()": {
        "details": "Computes the winning proposal taking all previous votes into account.",
        "return": "winningProposal_ index of winning proposal in the proposals arraywinnerName_ the name of winning proposal in the proposals array"
      }
    }
  },
  "userdoc": {
    "methods": {}
  }
}