{
  "contractName": "Vote",
  "abi": [
    {
      "constant": true,
      "inputs": [
        {
          "internalType": "address",
          "name": "",
          "type": "address"
        }
      ],
      "name": "declarationPercentage",
      "outputs": [
        {
          "internalType": "uint256",
          "name": "",
          "type": "uint256"
        }
      ],
      "payable": false,
      "stateMutability": "view",
      "type": "function"
    },
    {
      "constant": true,
      "inputs": [],
      "name": "isFinished",
      "outputs": [
        {
          "internalType": "bool",
          "name": "",
          "type": "bool"
        }
      ],
      "payable": false,
      "stateMutability": "view",
      "type": "function"
    },
    {
      "constant": true,
      "inputs": [],
      "name": "mNo",
      "outputs": [
        {
          "internalType": "uint256",
          "name": "",
          "type": "uint256"
        }
      ],
      "payable": false,
      "stateMutability": "view",
      "type": "function"
    },
    {
      "constant": true,
      "inputs": [],
      "name": "mYes",
      "outputs": [
        {
          "internalType": "uint256",
          "name": "",
          "type": "uint256"
        }
      ],
      "payable": false,
      "stateMutability": "view",
      "type": "function"
    },
    {
      "constant": true,
      "inputs": [],
      "name": "message",
      "outputs": [
        {
          "internalType": "string",
          "name": "",
          "type": "string"
        }
      ],
      "payable": false,
      "stateMutability": "view",
      "type": "function"
    },
    {
      "constant": true,
      "inputs": [],
      "name": "numVotesLeft",
      "outputs": [
        {
          "internalType": "uint16",
          "name": "",
          "type": "uint16"
        }
      ],
      "payable": false,
      "stateMutability": "view",
      "type": "function"
    },
    {
      "constant": true,
      "inputs": [],
      "name": "org1DeclarationSum",
      "outputs": [
        {
          "internalType": "uint256",
          "name": "",
          "type": "uint256"
        }
      ],
      "payable": false,
      "stateMutability": "view",
      "type": "function"
    },
    {
      "constant": true,
      "inputs": [],
      "name": "org1ProductionSum",
      "outputs": [
        {
          "internalType": "uint256",
          "name": "",
          "type": "uint256"
        }
      ],
      "payable": false,
      "stateMutability": "view",
      "type": "function"
    },
    {
      "constant": true,
      "inputs": [],
      "name": "org2DeclarationSum",
      "outputs": [
        {
          "internalType": "uint256",
          "name": "",
          "type": "uint256"
        }
      ],
      "payable": false,
      "stateMutability": "view",
      "type": "function"
    },
    {
      "constant": true,
      "inputs": [],
      "name": "org2ProductionSum",
      "outputs": [
        {
          "internalType": "uint256",
          "name": "",
          "type": "uint256"
        }
      ],
      "payable": false,
      "stateMutability": "view",
      "type": "function"
    },
    {
      "constant": true,
      "inputs": [],
      "name": "org3DeclarationSum",
      "outputs": [
        {
          "internalType": "uint256",
          "name": "",
          "type": "uint256"
        }
      ],
      "payable": false,
      "stateMutability": "view",
      "type": "function"
    },
    {
      "constant": true,
      "inputs": [],
      "name": "org3ProductionSum",
      "outputs": [
        {
          "internalType": "uint256",
          "name": "",
          "type": "uint256"
        }
      ],
      "payable": false,
      "stateMutability": "view",
      "type": "function"
    },
    {
      "constant": true,
      "inputs": [],
      "name": "org4DeclarationSum",
      "outputs": [
        {
          "internalType": "uint256",
          "name": "",
          "type": "uint256"
        }
      ],
      "payable": false,
      "stateMutability": "view",
      "type": "function"
    },
    {
      "constant": true,
      "inputs": [],
      "name": "org4ProductionSum",
      "outputs": [
        {
          "internalType": "uint256",
          "name": "",
          "type": "uint256"
        }
      ],
      "payable": false,
      "stateMutability": "view",
      "type": "function"
    },
    {
      "constant": true,
      "inputs": [
        {
          "internalType": "address",
          "name": "",
          "type": "address"
        }
      ],
      "name": "productionPercentage",
      "outputs": [
        {
          "internalType": "uint256",
          "name": "",
          "type": "uint256"
        }
      ],
      "payable": false,
      "stateMutability": "view",
      "type": "function"
    },
    {
      "constant": true,
      "inputs": [
        {
          "internalType": "uint256",
          "name": "",
          "type": "uint256"
        }
      ],
      "name": "proposals",
      "outputs": [
        {
          "internalType": "string",
          "name": "name",
          "type": "string"
        },
        {
          "internalType": "uint256",
          "name": "voteCount",
          "type": "uint256"
        }
      ],
      "payable": false,
      "stateMutability": "view",
      "type": "function"
    },
    {
      "constant": true,
      "inputs": [],
      "name": "voteExists",
      "outputs": [
        {
          "internalType": "bool",
          "name": "",
          "type": "bool"
        }
      ],
      "payable": false,
      "stateMutability": "view",
      "type": "function"
    },
    {
      "constant": true,
      "inputs": [
        {
          "internalType": "address",
          "name": "",
          "type": "address"
        }
      ],
      "name": "voters",
      "outputs": [
        {
          "internalType": "bool",
          "name": "voted",
          "type": "bool"
        },
        {
          "internalType": "uint256",
          "name": "vote",
          "type": "uint256"
        }
      ],
      "payable": false,
      "stateMutability": "view",
      "type": "function"
    },
    {
      "constant": true,
      "inputs": [],
      "name": "winnerProposalName",
      "outputs": [
        {
          "internalType": "string",
          "name": "",
          "type": "string"
        }
      ],
      "payable": false,
      "stateMutability": "view",
      "type": "function"
    },
    {
      "constant": true,
      "inputs": [
        {
          "internalType": "address",
          "name": "account",
          "type": "address"
        }
      ],
      "name": "getEnergyPercentage",
      "outputs": [
        {
          "internalType": "uint256",
          "name": "",
          "type": "uint256"
        },
        {
          "internalType": "uint256",
          "name": "",
          "type": "uint256"
        }
      ],
      "payable": false,
      "stateMutability": "view",
      "type": "function"
    },
    {
      "constant": true,
      "inputs": [
        {
          "internalType": "address",
          "name": "account",
          "type": "address"
        }
      ],
      "name": "getEnergySum",
      "outputs": [
        {
          "internalType": "uint256",
          "name": "",
          "type": "uint256"
        },
        {
          "internalType": "uint256",
          "name": "",
          "type": "uint256"
        }
      ],
      "payable": false,
      "stateMutability": "view",
      "type": "function"
    },
    {
      "constant": false,
      "inputs": [
        {
          "internalType": "uint256",
          "name": "declarationSum",
          "type": "uint256"
        },
        {
          "internalType": "uint256",
          "name": "productionSum",
          "type": "uint256"
        }
      ],
      "name": "setEnergySum",
      "outputs": [],
      "payable": false,
      "stateMutability": "nonpayable",
      "type": "function"
    },
    {
      "constant": false,
      "inputs": [],
      "name": "createVote",
      "outputs": [],
      "payable": false,
      "stateMutability": "nonpayable",
      "type": "function"
    },
    {
      "constant": false,
      "inputs": [
        {
          "internalType": "uint256",
          "name": "proposal",
          "type": "uint256"
        }
      ],
      "name": "postVote",
      "outputs": [],
      "payable": false,
      "stateMutability": "nonpayable",
      "type": "function"
    },
    {
      "constant": false,
      "inputs": [],
      "name": "updateVoteState",
      "outputs": [],
      "payable": false,
      "stateMutability": "nonpayable",
      "type": "function"
    }
  ],
  "bytecode": "0x608060405260405180602001604052806000815250600090805190602001906200002b92919062000241565b506000600160006101000a81548160ff02191690831515021790555060006001806101000a81548160ff02191690831515021790555060405180602001604052806000815250600290805190602001906200008892919062000241565b50600060035560006004556004600660006101000a81548161ffff021916908361ffff16021790555073a7e2d1f80b92b75b3fd187490b2b01550043d0b3600660026101000a81548173ffffffffffffffffffffffffffffffffffffffff021916908373ffffffffffffffffffffffffffffffffffffffff16021790555073a02a9a8d092a47dc4e7abf569a9b392d0ce07e43600760006101000a81548173ffffffffffffffffffffffffffffffffffffffff021916908373ffffffffffffffffffffffffffffffffffffffff16021790555073448f178c88c0fc73ea74714b1e0494781548ff4c600860006101000a81548173ffffffffffffffffffffffffffffffffffffffff021916908373ffffffffffffffffffffffffffffffffffffffff160217905550737188d086e0415b0b394a67325fc5c4534262e76a600960006101000a81548173ffffffffffffffffffffffffffffffffffffffff021916908373ffffffffffffffffffffffffffffffffffffffff1602179055506000600a556000600b556000600c556000600d556000600e556000600f55600060105560006011553480156200023a57600080fd5b50620002f0565b828054600181600116156101000203166002900490600052602060002090601f016020900481019282601f106200028457805160ff1916838001178555620002b5565b82800160010185558215620002b5579182015b82811115620002b457825182559160200191906001019062000297565b5b509050620002c49190620002c8565b5090565b620002ed91905b80821115620002e9576000816000905550600101620002cf565b5090565b90565b6121fc80620003006000396000f3fe608060405234801561001057600080fd5b50600436106101735760003560e01c80637b352962116100de578063d27371a611610097578063eb1e70fb11610071578063eb1e70fb14610654578063faadee2514610672578063fee54ef5146106d1578063ff5cadf0146106ef57610173565b8063d27371a614610541578063e21f37ce14610599578063e4cdf5b21461061c57610173565b80637b352962146103df578063a0f2c29114610401578063a3ec138d14610484578063a651797e146104e7578063c42576ee14610505578063c6f663341461052357610173565b80634bd82b2f116101305780634bd82b2f146103025780635e963a9b1461030c5780635f9a0f851461032a5780636891a54c14610348578063694ff0f2146103a75780636a678a8a146103b157610173565b8063013cf08b1461017857806337dd1264146102265780633f771bbe1461027e5780634617b20a146102a457806349712b3a146102c25780634a37f88c146102e4575b600080fd5b6101a46004803603602081101561018e57600080fd5b810190808035906020019092919050505061070d565b6040518080602001838152602001828103825284818151815260200191508051906020019080838360005b838110156101ea5780820151818401526020810190506101cf565b50505050905090810190601f1680156102175780820380516001836020036101000a031916815260200191505b50935050505060405180910390f35b6102686004803603602081101561023c57600080fd5b81019080803573ffffffffffffffffffffffffffffffffffffffff1690602001909291905050506107d6565b6040518082815260200191505060405180910390f35b6102866107ee565b604051808261ffff1661ffff16815260200191505060405180910390f35b6102ac610802565b6040518082815260200191505060405180910390f35b6102ca610808565b604051808215151515815260200191505060405180910390f35b6102ec61081b565b6040518082815260200191505060405180910390f35b61030a610821565b005b61031461102f565b6040518082815260200191505060405180910390f35b610332611035565b6040518082815260200191505060405180910390f35b61038a6004803603602081101561035e57600080fd5b81019080803573ffffffffffffffffffffffffffffffffffffffff16906020019092919050505061103b565b604051808381526020018281526020019250505060405180910390f35b6103af6111d8565b005b6103dd600480360360208110156103c757600080fd5b8101908080359060200190929190505050611828565b005b6103e7611ba2565b604051808215151515815260200191505060405180910390f35b610409611bb4565b6040518080602001828103825283818151815260200191508051906020019080838360005b8381101561044957808201518184015260208101905061042e565b50505050905090810190601f1680156104765780820380516001836020036101000a031916815260200191505b509250505060405180910390f35b6104c66004803603602081101561049a57600080fd5b81019080803573ffffffffffffffffffffffffffffffffffffffff169060200190929190505050611c52565b60405180831515151581526020018281526020019250505060405180910390f35b6104ef611c83565b6040518082815260200191505060405180910390f35b61050d611c89565b6040518082815260200191505060405180910390f35b61052b611c8f565b6040518082815260200191505060405180910390f35b6105836004803603602081101561055757600080fd5b81019080803573ffffffffffffffffffffffffffffffffffffffff169060200190929190505050611c95565b6040518082815260200191505060405180910390f35b6105a1611cad565b6040518080602001828103825283818151815260200191508051906020019080838360005b838110156105e15780820151818401526020810190506105c6565b50505050905090810190601f16801561060e5780820380516001836020036101000a031916815260200191505b509250505060405180910390f35b6106526004803603604081101561063257600080fd5b810190808035906020019092919080359060200190929190505050611d4b565b005b61065c611ef2565b6040518082815260200191505060405180910390f35b6106b46004803603602081101561068857600080fd5b81019080803573ffffffffffffffffffffffffffffffffffffffff169060200190929190505050611ef8565b604051808381526020018281526020019250505060405180910390f35b6106d9611f84565b6040518082815260200191505060405180910390f35b6106f7611f8a565b6040518082815260200191505060405180910390f35b6005818154811061071a57fe5b9060005260206000209060020201600091509050806000018054600181600116156101000203166002900480601f0160208091040260200160405190810160405280929190818152602001828054600181600116156101000203166002900480156107c65780601f1061079b576101008083540402835291602001916107c6565b820191906000526020600020905b8154815290600101906020018083116107a957829003601f168201915b5050505050908060010154905082565b60136020528060005260406000206000915090505481565b600660009054906101000a900461ffff1681565b600a5481565b600160009054906101000a900460ff1681565b60105481565b600660029054906101000a900473ffffffffffffffffffffffffffffffffffffffff1673ffffffffffffffffffffffffffffffffffffffff163373ffffffffffffffffffffffffffffffffffffffff1614806108ca5750600760009054906101000a900473ffffffffffffffffffffffffffffffffffffffff1673ffffffffffffffffffffffffffffffffffffffff163373ffffffffffffffffffffffffffffffffffffffff16145b806109225750600860009054906101000a900473ffffffffffffffffffffffffffffffffffffffff1673ffffffffffffffffffffffffffffffffffffffff163373ffffffffffffffffffffffffffffffffffffffff16145b8061097a5750600960009054906101000a900473ffffffffffffffffffffffffffffffffffffffff1673ffffffffffffffffffffffffffffffffffffffff163373ffffffffffffffffffffffffffffffffffffffff16145b6109cf576040517f08c379a00000000000000000000000000000000000000000000000000000000081526004018080602001828103825260418152602001806121416041913960600191505060405180910390fd5b600660009054906101000a900461ffff1661ffff1660056001815481106109f257fe5b906000526020600020906002020160010154016005600081548110610a1357fe5b9060005260206000209060020201600101541115610e76576000600160006101000a81548160ff0219169083151502179055506040518060400160405280600381526020017f596573000000000000000000000000000000000000000000000000000000000081525060009080519060200190610a91929190611fd3565b506000601054600e54600c54600a540101019050610ab1600a5482611f90565b60126000600660029054906101000a900473ffffffffffffffffffffffffffffffffffffffff1673ffffffffffffffffffffffffffffffffffffffff1673ffffffffffffffffffffffffffffffffffffffff16815260200190815260200160002081905550610b22600c5482611f90565b60126000600760009054906101000a900473ffffffffffffffffffffffffffffffffffffffff1673ffffffffffffffffffffffffffffffffffffffff1673ffffffffffffffffffffffffffffffffffffffff16815260200190815260200160002081905550610b93600e5482611f90565b60126000600860009054906101000a900473ffffffffffffffffffffffffffffffffffffffff1673ffffffffffffffffffffffffffffffffffffffff1673ffffffffffffffffffffffffffffffffffffffff16815260200190815260200160002081905550610c0460105482611f90565b60126000600960009054906101000a900473ffffffffffffffffffffffffffffffffffffffff1673ffffffffffffffffffffffffffffffffffffffff1673ffffffffffffffffffffffffffffffffffffffff168152602001908152602001600020819055506000601154600f54600d54600b540101019050610c88600b5482611f90565b60136000600660029054906101000a900473ffffffffffffffffffffffffffffffffffffffff1673ffffffffffffffffffffffffffffffffffffffff1673ffffffffffffffffffffffffffffffffffffffff16815260200190815260200160002081905550610cf9600d5482611f90565b60136000600760009054906101000a900473ffffffffffffffffffffffffffffffffffffffff1673ffffffffffffffffffffffffffffffffffffffff1673ffffffffffffffffffffffffffffffffffffffff16815260200190815260200160002081905550610d6a600f5482611f90565b60136000600860009054906101000a900473ffffffffffffffffffffffffffffffffffffffff1673ffffffffffffffffffffffffffffffffffffffff1673ffffffffffffffffffffffffffffffffffffffff16815260200190815260200160002081905550610ddb60115482611f90565b60136000600960009054906101000a900473ffffffffffffffffffffffffffffffffffffffff1673ffffffffffffffffffffffffffffffffffffffff1673ffffffffffffffffffffffffffffffffffffffff168152602001908152602001600020819055506040518060600160405280602481526020016121a46024913960029080519060200190610e6e929190611fd3565b50505061102d565b600660009054906101000a900461ffff1661ffff166005600081548110610e9957fe5b906000526020600020906002020160010154016005600181548110610eba57fe5b9060005260206000209060020201600101541115610f6d576000600160006101000a81548160ff0219169083151502179055506040518060400160405280600281526020017f4e6f00000000000000000000000000000000000000000000000000000000000081525060009080519060200190610f38929190611fd3565b506040518060600160405280602281526020016121826022913960029080519060200190610f67929190611fd3565b5061102c565b6040518060400160405280601281526020017f566f7465206e6f742066696e697368656421000000000000000000000000000081525060029080519060200190610fb8929190611fd3565b506005600081548110610fc757fe5b9060005260206000209060020201600101546003819055506005600181548110610fed57fe5b906000526020600020906002020160010154600481905550604051806020016040528060008152506000908051906020019061102a929190611fd3565b505b5b565b60115481565b600d5481565b600080600660029054906101000a900473ffffffffffffffffffffffffffffffffffffffff1673ffffffffffffffffffffffffffffffffffffffff168373ffffffffffffffffffffffffffffffffffffffff1614156110a357600a54600b54915091506111d3565b600760009054906101000a900473ffffffffffffffffffffffffffffffffffffffff1673ffffffffffffffffffffffffffffffffffffffff168373ffffffffffffffffffffffffffffffffffffffff16141561110857600c54600d54915091506111d3565b600860009054906101000a900473ffffffffffffffffffffffffffffffffffffffff1673ffffffffffffffffffffffffffffffffffffffff168373ffffffffffffffffffffffffffffffffffffffff16141561116d57600e54600f54915091506111d3565b600960009054906101000a900473ffffffffffffffffffffffffffffffffffffffff1673ffffffffffffffffffffffffffffffffffffffff168373ffffffffffffffffffffffffffffffffffffffff1614156111d257601054601154915091506111d3565b5b915091565b600660029054906101000a900473ffffffffffffffffffffffffffffffffffffffff1673ffffffffffffffffffffffffffffffffffffffff163373ffffffffffffffffffffffffffffffffffffffff1614806112815750600760009054906101000a900473ffffffffffffffffffffffffffffffffffffffff1673ffffffffffffffffffffffffffffffffffffffff163373ffffffffffffffffffffffffffffffffffffffff16145b806112d95750600860009054906101000a900473ffffffffffffffffffffffffffffffffffffffff1673ffffffffffffffffffffffffffffffffffffffff163373ffffffffffffffffffffffffffffffffffffffff16145b806113315750600960009054906101000a900473ffffffffffffffffffffffffffffffffffffffff1673ffffffffffffffffffffffffffffffffffffffff163373ffffffffffffffffffffffffffffffffffffffff16145b611386576040517f08c379a00000000000000000000000000000000000000000000000000000000081526004018080602001828103825260418152602001806121416041913960600191505060405180910390fd5b6000600580549050905060008090505b818110156113e75760058054806113a957fe5b6001900381819060005260206000209060020201600080820160006113ce9190612053565b6001820160009055505090558080600101915050611396565b50600560405180604001604052806040518060400160405280600381526020017f59657300000000000000000000000000000000000000000000000000000000008152508152602001600081525090806001815401808255809150509060018203906000526020600020906002020160009091929091909150600082015181600001908051906020019061147c92919061209b565b5060208201518160010155505050600560405180604001604052806040518060400160405280600281526020017f4e6f0000000000000000000000000000000000000000000000000000000000008152508152602001600081525090806001815401808255809150509060018203906000526020600020906002020160009091929091909150600082015181600001908051906020019061151e92919061209b565b506020820151816001015550505060018060006101000a81548160ff021916908315150217905550604051806020016040528060008152506000908051906020019061156b929190611fd3565b506040518060400160405280601a81526020017f566f74652063726561746564207375636365737366756c6c7921000000000000815250600290805190602001906115b7929190611fd3565b5060056000815481106115c657fe5b90600052602060002090600202016001015460038190555060056001815481106115ec57fe5b906000526020600020906002020160010154600481905550600060146000600660029054906101000a900473ffffffffffffffffffffffffffffffffffffffff1673ffffffffffffffffffffffffffffffffffffffff1673ffffffffffffffffffffffffffffffffffffffff168152602001908152602001600020905060008160000160006101000a81548160ff02191690831515021790555060146000600760009054906101000a900473ffffffffffffffffffffffffffffffffffffffff1673ffffffffffffffffffffffffffffffffffffffff1673ffffffffffffffffffffffffffffffffffffffff168152602001908152602001600020905060008160000160006101000a81548160ff02191690831515021790555060146000600860009054906101000a900473ffffffffffffffffffffffffffffffffffffffff1673ffffffffffffffffffffffffffffffffffffffff1673ffffffffffffffffffffffffffffffffffffffff168152602001908152602001600020905060008160000160006101000a81548160ff02191690831515021790555060146000600960009054906101000a900473ffffffffffffffffffffffffffffffffffffffff1673ffffffffffffffffffffffffffffffffffffffff1673ffffffffffffffffffffffffffffffffffffffff168152602001908152602001600020905060008160000160006101000a81548160ff0219169083151502179055506004600660006101000a81548161ffff021916908361ffff1602179055505050565b600660029054906101000a900473ffffffffffffffffffffffffffffffffffffffff1673ffffffffffffffffffffffffffffffffffffffff163373ffffffffffffffffffffffffffffffffffffffff1614806118d15750600760009054906101000a900473ffffffffffffffffffffffffffffffffffffffff1673ffffffffffffffffffffffffffffffffffffffff163373ffffffffffffffffffffffffffffffffffffffff16145b806119295750600860009054906101000a900473ffffffffffffffffffffffffffffffffffffffff1673ffffffffffffffffffffffffffffffffffffffff163373ffffffffffffffffffffffffffffffffffffffff16145b806119815750600960009054906101000a900473ffffffffffffffffffffffffffffffffffffffff1673ffffffffffffffffffffffffffffffffffffffff163373ffffffffffffffffffffffffffffffffffffffff16145b6119d6576040517f08c379a00000000000000000000000000000000000000000000000000000000081526004018080602001828103825260418152602001806121416041913960600191505060405180910390fd5b6000601460003373ffffffffffffffffffffffffffffffffffffffff1673ffffffffffffffffffffffffffffffffffffffff16815260200190815260200160002090508060000160009054906101000a900460ff1615611a81576040518060400160405280600e81526020017f416c726561647920766f7465642e00000000000000000000000000000000000081525060029080519060200190611a7b929190611fd3565b50611b9e565b60018160000160006101000a81548160ff0219169083151502179055508181600101819055506001600660008282829054906101000a900461ffff160392506101000a81548161ffff021916908361ffff160217905550600160058381548110611ae757fe5b9060005260206000209060020201600101600082825401925050819055506040518060400160405280601381526020017f566f746564207375636365737366756c6c79210000000000000000000000000081525060029080519060200190611b50929190611fd3565b506005600081548110611b5f57fe5b9060005260206000209060020201600101546003819055506005600181548110611b8557fe5b9060005260206000209060020201600101546004819055505b5050565b6001809054906101000a900460ff1681565b60008054600181600116156101000203166002900480601f016020809104026020016040519081016040528092919081815260200182805460018160011615610100020316600290048015611c4a5780601f10611c1f57610100808354040283529160200191611c4a565b820191906000526020600020905b815481529060010190602001808311611c2d57829003601f168201915b505050505081565b60146020528060005260406000206000915090508060000160009054906101000a900460ff16908060010154905082565b600e5481565b600b5481565b60045481565b60126020528060005260406000206000915090505481565b60028054600181600116156101000203166002900480601f016020809104026020016040519081016040528092919081815260200182805460018160011615610100020316600290048015611d435780601f10611d1857610100808354040283529160200191611d43565b820191906000526020600020905b815481529060010190602001808311611d2657829003601f168201915b505050505081565b600660029054906101000a900473ffffffffffffffffffffffffffffffffffffffff1673ffffffffffffffffffffffffffffffffffffffff163373ffffffffffffffffffffffffffffffffffffffff161415611db45781600a8190555080600b81905550611eee565b600760009054906101000a900473ffffffffffffffffffffffffffffffffffffffff1673ffffffffffffffffffffffffffffffffffffffff163373ffffffffffffffffffffffffffffffffffffffff161415611e1d5781600c8190555080600d81905550611eed565b600860009054906101000a900473ffffffffffffffffffffffffffffffffffffffff1673ffffffffffffffffffffffffffffffffffffffff163373ffffffffffffffffffffffffffffffffffffffff161415611e865781600e8190555080600f81905550611eec565b600960009054906101000a900473ffffffffffffffffffffffffffffffffffffffff1673ffffffffffffffffffffffffffffffffffffffff163373ffffffffffffffffffffffffffffffffffffffff161415611eeb5781601081905550806011819055505b5b5b5b5050565b600c5481565b600080601260008473ffffffffffffffffffffffffffffffffffffffff1673ffffffffffffffffffffffffffffffffffffffff16815260200190815260200160002054601360008573ffffffffffffffffffffffffffffffffffffffff1673ffffffffffffffffffffffffffffffffffffffff1681526020019081526020016000205491509150915091565b60035481565b600f5481565b600080600a83856103e80281611fa257fe5b0481611faa57fe5b069050828460640281611fb957fe5b0491506005811115611fcc576001820191505b5092915050565b828054600181600116156101000203166002900490600052602060002090601f016020900481019282601f1061201457805160ff1916838001178555612042565b82800160010185558215612042579182015b82811115612041578251825591602001919060010190612026565b5b50905061204f919061211b565b5090565b50805460018160011615610100020316600290046000825580601f106120795750612098565b601f016020900490600052602060002090810190612097919061211b565b5b50565b828054600181600116156101000203166002900490600052602060002090601f016020900481019282601f106120dc57805160ff191683800117855561210a565b8280016001018555821561210a579182015b828111156121095782518255916020019190600101906120ee565b5b509050612117919061211b565b5090565b61213d91905b80821115612139576000816000905550600101612121565b5090565b9056fe546869732066756e6374696f6e206973207265737472696374656420746f2074686520616464726573736573206f6620746865206f7267616e697a6174696f6e7354686520766f746520697320646f6e652e2054686520726573756c74206973204e6f54686520766f746520697320646f6e652e2054686520726573756c74206973205965732ea265627a7a723158200e8a67730307f9811aea8114baf1f4c13e682eb118c7c8467d60c0736dcf1c0564736f6c63430005100032",
  "source": "// SPDX-License-Identifier: GPL-3.0\n\npragma solidity ^0.5.16;\n\ncontract Vote {\n    // my structs\n    struct Voter {\n        bool voted;  // if true, that person already voted\n        uint vote;   // index of the voted proposal\n    }\n\n    struct Proposal {\n        string name;   // short name (up to 32 bytes)\n        uint voteCount; // number of accumulated votes\n    }\n\n    // my variables\n    string public winnerProposalName = \"\";\n    bool public voteExists = false;\n    bool public isFinished = false;\n    string public message = \"\";\n    uint public mYes = 0;\n    uint public mNo = 0;\n    Proposal[] public proposals;\n    uint16 public numVotesLeft = 4;\n    \n    //TODO you should inherit the addresses from sign up\n    address org1 = 0xa7e2d1F80B92b75B3fd187490b2b01550043D0b3;\n    address org2 = 0xa02A9A8D092a47dc4E7ABf569a9b392D0Ce07e43;\n    address org3 = 0x448F178C88C0fC73eA74714b1e0494781548ff4C;\n    address org4 = 0x7188D086E0415B0b394a67325Fc5c4534262e76a;\n    uint public org1DeclarationSum = 0;\n    uint public org1ProductionSum = 0;\n    uint public org2DeclarationSum = 0;\n    uint public org2ProductionSum = 0;\n    uint public org3DeclarationSum = 0;\n    uint public org3ProductionSum = 0;\n    uint public org4DeclarationSum = 0;\n    uint public org4ProductionSum = 0;\n\n    // my mappings\n    mapping(address => uint) public declarationPercentage;\n    mapping(address => uint) public productionPercentage;\n    mapping(address => Voter) public voters;\n    \n    // my modifiers\n    modifier isOrg {\n        require(msg.sender == org1 || msg.sender == org2 || msg.sender == org3 || msg.sender == org4, \"This function is restricted to the addresses of the organizations\");\n        _;\n    }\n\n    // and finally: my functions()\n    function getEnergyPercentage(address account) public view returns (uint, uint) {\n        return (declarationPercentage[account], productionPercentage[account]);\n    }\n\n    function getEnergySum(address account) public view returns (uint, uint) {\n        if(account == org1){\n            return (org1DeclarationSum, org1ProductionSum);\n        } else if(account == org2){\n            return (org2DeclarationSum, org2ProductionSum);\n        } else if(account == org3){\n            return (org3DeclarationSum, org3ProductionSum);\n        } else if(account == org4){\n            return (org4DeclarationSum, org4ProductionSum);\n        }\n    }\n\n    function setEnergySum(uint declarationSum, uint productionSum) public {\n        if(msg.sender == org1){\n            org1DeclarationSum = declarationSum;\n            org1ProductionSum = productionSum;\n        } else if(msg.sender == org2){\n            org2DeclarationSum = declarationSum;\n            org2ProductionSum = productionSum;\n        } else if(msg.sender == org3){\n            org3DeclarationSum = declarationSum;\n            org3ProductionSum = productionSum;\n        } else if(msg.sender == org4){\n            org4DeclarationSum = declarationSum;\n            org4ProductionSum = productionSum;\n        }\n    }\n    \n    function createVote() public isOrg {   \n        uint len = proposals.length;\n        for(uint k = 0; k < len; k++){\n            proposals.pop();\n        }\n        proposals.push(Proposal({\n                name: \"Yes\",\n                voteCount: 0\n            }));\n        proposals.push(Proposal({\n                name: \"No\",\n                voteCount: 0\n            }));\n        voteExists = true;\n        winnerProposalName = \"\";\n        message = \"Vote created successfully!\";\n        mYes = proposals[0].voteCount;\n        mNo = proposals[1].voteCount;\n        \n        Voter storage sender = voters[org1];\n        sender.voted = false;\n        sender = voters[org2];\n        sender.voted = false;\n        sender = voters[org3];\n        sender.voted = false;\n        sender = voters[org4];\n        sender.voted = false;\n        numVotesLeft = 4;\n    }\n      \n    function postVote(uint proposal) public isOrg {\n        Voter storage sender = voters[msg.sender];\n        if(sender.voted){\n            message = \"Already voted.\";\n        } else {\n            sender.voted = true;\n            sender.vote = proposal;\n            \n            numVotesLeft -= 1;\n            proposals[proposal].voteCount += 1;\n            message = \"Voted successfully!\";\n            mYes = proposals[0].voteCount;\n            mNo = proposals[1].voteCount;\n        }\n    }\n\n    function updateVoteState() public isOrg {\n        if(proposals[0].voteCount > proposals[1].voteCount + numVotesLeft){\n            voteExists = false;\n            // winnerProposalName = proposals[0].name;\n            winnerProposalName = \"Yes\";\n            uint declarationSumAll = org1DeclarationSum + org2DeclarationSum + org3DeclarationSum + org4DeclarationSum;\n            declarationPercentage[org1] = calculatePercentage(org1DeclarationSum, declarationSumAll);\n            declarationPercentage[org2] = calculatePercentage(org2DeclarationSum, declarationSumAll);\n            declarationPercentage[org3] = calculatePercentage(org3DeclarationSum, declarationSumAll);\n            declarationPercentage[org4] = calculatePercentage(org4DeclarationSum, declarationSumAll);\n            uint productionSumAll = org1ProductionSum + org2ProductionSum + org3ProductionSum + org4ProductionSum;\n            productionPercentage[org1] = calculatePercentage(org1ProductionSum, productionSumAll);\n            productionPercentage[org2] = calculatePercentage(org2ProductionSum, productionSumAll);\n            productionPercentage[org3] = calculatePercentage(org3ProductionSum, productionSumAll);\n            productionPercentage[org4] = calculatePercentage(org4ProductionSum, productionSumAll);\n            message = \"The vote is done. The result is Yes.\";\n        } else if (proposals[1].voteCount > proposals[0].voteCount + numVotesLeft){\n            voteExists = false;\n            winnerProposalName = \"No\";\n            message = \"The vote is done. The result is No\";\n        } else {\n            message = \"Vote not finished!\";\n            mYes = proposals[0].voteCount;\n            mNo = proposals[1].voteCount;\n            winnerProposalName = \"\";\n        }\n    }\n\n    function calculatePercentage( uint sum, uint sumAll ) private returns (uint result){\n        uint temp = ( ( 1000 * sum ) / sumAll ) % 10;\n        result = ( 100 * sum ) / sumAll;\n        if ( temp > 5 ) {\n            result += 1;\n        } \n    }\n}\n",
  "sourcePath": "/home/sergios/BlockchainDAO/contracts/Vote.sol",
  "compiler": {
    "name": "solc",
    "version": "0.5.16+commit.9c3226ce.Emscripten.clang"
  },
  "schemaVersion": "3.4.1",
  "updatedAt": "2022-03-15T19:04:03.391Z",
  "networkType": "ethereum",
  "devdoc": {
    "methods": {}
  },
  "userdoc": {
    "methods": {}
  }
}