{
  "contractName": "SimpleStorage",
  "abi": [
    {
      "inputs": [
        {
          "internalType": "uint256",
          "name": "initVal",
          "type": "uint256"
        }
      ],
      "payable": false,
      "stateMutability": "nonpayable",
      "type": "constructor"
    },
    {
      "constant": true,
      "inputs": [],
      "name": "storedData",
      "outputs": [
        {
          "internalType": "uint256",
          "name": "",
          "type": "uint256"
        }
      ],
      "payable": false,
      "stateMutability": "view",
      "type": "function"
    },
    {
      "constant": false,
      "inputs": [
        {
          "internalType": "uint256",
          "name": "x",
          "type": "uint256"
        }
      ],
      "name": "set",
      "outputs": [],
      "payable": false,
      "stateMutability": "nonpayable",
      "type": "function"
    },
    {
      "constant": true,
      "inputs": [],
      "name": "get",
      "outputs": [
        {
          "internalType": "uint256",
          "name": "retVal",
          "type": "uint256"
        }
      ],
      "payable": false,
      "stateMutability": "view",
      "type": "function"
    }
  ],
  "bytecode": "0x608060405234801561001057600080fd5b5060405161014c38038061014c8339818101604052602081101561003357600080fd5b8101908080519060200190929190505050806000819055505060f28061005a6000396000f3fe6080604052348015600f57600080fd5b5060043610603c5760003560e01c80632a1afcd914604157806360fe47b114605d5780636d4ce63c146088575b600080fd5b604760a4565b6040518082815260200191505060405180910390f35b608660048036036020811015607157600080fd5b810190808035906020019092919050505060aa565b005b608e60b4565b6040518082815260200191505060405180910390f35b60005481565b8060008190555050565b6000805490509056fea265627a7a72315820c1b057e31f70e400f002c34f2385a5abd66d7a4e9e8338866ea126d059eac13a64736f6c63430005100032",
  "source": "pragma solidity ^0.5.16;\n\ncontract SimpleStorage {\n  uint public storedData;\n\n  constructor(uint initVal) public {\n    storedData = initVal;\n  }\n\n  function set(uint x) public {\n    storedData = x;\n  }\n\n  function get() view public returns (uint retVal) {\n    return storedData;\n  }\n}",
  "sourcePath": "/home/sergios/quorum-network/contracts/SimpleStorage.sol",
  "compiler": {
    "name": "solc",
    "version": "0.5.16+commit.9c3226ce.Emscripten.clang"
  },
  "schemaVersion": "3.4.1",
  "updatedAt": "2021-09-10T16:26:31.656Z",
  "networkType": "quorum",
  "devdoc": {
    "methods": {}
  },
  "userdoc": {
    "methods": {}
  }
}